{
  "_format": "hh-sol-artifact-1",
  "contractName": "PenaltyManager",
  "sourceName": "contracts/PenaltyManager.sol",
  "abi": [
    {
      "inputs": [],
      "stateMutability": "nonpayable",
      "type": "constructor"
    },
    {
      "inputs": [
        {
          "internalType": "address",
          "name": "target",
          "type": "address"
        }
      ],
      "name": "AddressEmptyCode",
      "type": "error"
    },
    {
      "inputs": [
        {
          "internalType": "address",
          "name": "implementation",
          "type": "address"
        }
      ],
      "name": "ERC1967InvalidImplementation",
      "type": "error"
    },
    {
      "inputs": [],
      "name": "ERC1967NonPayable",
      "type": "error"
    },
    {
      "inputs": [],
      "name": "FailedCall",
      "type": "error"
    },
    {
      "inputs": [],
      "name": "InvalidInitialization",
      "type": "error"
    },
    {
      "inputs": [],
      "name": "NotInitializing",
      "type": "error"
    },
    {
      "inputs": [
        {
          "internalType": "address",
          "name": "owner",
          "type": "address"
        }
      ],
      "name": "OwnableInvalidOwner",
      "type": "error"
    },
    {
      "inputs": [
        {
          "internalType": "address",
          "name": "account",
          "type": "address"
        }
      ],
      "name": "OwnableUnauthorizedAccount",
      "type": "error"
    },
    {
      "inputs": [],
      "name": "ReentrancyGuardReentrantCall",
      "type": "error"
    },
    {
      "inputs": [],
      "name": "UUPSUnauthorizedCallContext",
      "type": "error"
    },
    {
      "inputs": [
        {
          "internalType": "bytes32",
          "name": "slot",
          "type": "bytes32"
        }
      ],
      "name": "UUPSUnsupportedProxiableUUID",
      "type": "error"
    },
    {
      "anonymous": false,
      "inputs": [
        {
          "indexed": true,
          "internalType": "address",
          "name": "token",
          "type": "address"
        },
        {
          "indexed": false,
          "internalType": "uint256",
          "name": "amount",
          "type": "uint256"
        },
        {
          "indexed": true,
          "internalType": "address",
          "name": "recipient",
          "type": "address"
        },
        {
          "indexed": true,
          "internalType": "address",
          "name": "recoverer",
          "type": "address"
        }
      ],
      "name": "EmergencyRecovery",
      "type": "event"
    },
    {
      "anonymous": false,
      "inputs": [
        {
          "indexed": false,
          "internalType": "uint64",
          "name": "version",
          "type": "uint64"
        }
      ],
      "name": "Initialized",
      "type": "event"
    },
    {
      "anonymous": false,
      "inputs": [
        {
          "indexed": true,
          "internalType": "address",
          "name": "previousOwner",
          "type": "address"
        },
        {
          "indexed": true,
          "internalType": "address",
          "name": "newOwner",
          "type": "address"
        }
      ],
      "name": "OwnershipTransferred",
      "type": "event"
    },
    {
      "anonymous": false,
      "inputs": [
        {
          "indexed": false,
          "internalType": "uint256",
          "name": "vaultId",
          "type": "uint256"
        },
        {
          "indexed": false,
          "internalType": "uint256",
          "name": "amount",
          "type": "uint256"
        },
        {
          "indexed": false,
          "internalType": "uint256",
          "name": "penalty",
          "type": "uint256"
        },
        {
          "indexed": false,
          "internalType": "uint256",
          "name": "remainingAmount",
          "type": "uint256"
        }
      ],
      "name": "PenaltyCalculated",
      "type": "event"
    },
    {
      "anonymous": false,
      "inputs": [
        {
          "indexed": true,
          "internalType": "address",
          "name": "token",
          "type": "address"
        },
        {
          "indexed": false,
          "internalType": "uint256",
          "name": "amount",
          "type": "uint256"
        },
        {
          "indexed": true,
          "internalType": "address",
          "name": "treasury",
          "type": "address"
        },
        {
          "indexed": true,
          "internalType": "address",
          "name": "collector",
          "type": "address"
        }
      ],
      "name": "PenaltyCollected",
      "type": "event"
    },
    {
      "anonymous": false,
      "inputs": [
        {
          "indexed": true,
          "internalType": "address",
          "name": "owner",
          "type": "address"
        },
        {
          "indexed": false,
          "internalType": "uint256",
          "name": "initialPenaltyPercentage",
          "type": "uint256"
        },
        {
          "indexed": false,
          "internalType": "address",
          "name": "initialTreasury",
          "type": "address"
        }
      ],
      "name": "PenaltyManagerInitialized",
      "type": "event"
    },
    {
      "anonymous": false,
      "inputs": [
        {
          "indexed": true,
          "internalType": "address",
          "name": "implementation",
          "type": "address"
        }
      ],
      "name": "PenaltyManagerUpgraded",
      "type": "event"
    },
    {
      "anonymous": false,
      "inputs": [
        {
          "indexed": false,
          "internalType": "uint256",
          "name": "oldPercentage",
          "type": "uint256"
        },
        {
          "indexed": false,
          "internalType": "uint256",
          "name": "newPercentage",
          "type": "uint256"
        },
        {
          "indexed": true,
          "internalType": "address",
          "name": "updater",
          "type": "address"
        }
      ],
      "name": "PenaltyPercentageUpdated",
      "type": "event"
    },
    {
      "anonymous": false,
      "inputs": [
        {
          "indexed": true,
          "internalType": "address",
          "name": "oldTreasury",
          "type": "address"
        },
        {
          "indexed": true,
          "internalType": "address",
          "name": "newTreasury",
          "type": "address"
        },
        {
          "indexed": true,
          "internalType": "address",
          "name": "updater",
          "type": "address"
        }
      ],
      "name": "TreasuryAddressUpdated",
      "type": "event"
    },
    {
      "anonymous": false,
      "inputs": [
        {
          "indexed": true,
          "internalType": "address",
          "name": "implementation",
          "type": "address"
        }
      ],
      "name": "Upgraded",
      "type": "event"
    },
    {
      "inputs": [],
      "name": "BASIS_POINTS",
      "outputs": [
        {
          "internalType": "uint256",
          "name": "",
          "type": "uint256"
        }
      ],
      "stateMutability": "view",
      "type": "function"
    },
    {
      "inputs": [],
      "name": "MAX_PENALTY_PERCENTAGE",
      "outputs": [
        {
          "internalType": "uint256",
          "name": "",
          "type": "uint256"
        }
      ],
      "stateMutability": "view",
      "type": "function"
    },
    {
      "inputs": [],
      "name": "UPGRADE_INTERFACE_VERSION",
      "outputs": [
        {
          "internalType": "string",
          "name": "",
          "type": "string"
        }
      ],
      "stateMutability": "view",
      "type": "function"
    },
    {
      "inputs": [
        {
          "internalType": "uint256",
          "name": "amount",
          "type": "uint256"
        }
      ],
      "name": "calculatePenalty",
      "outputs": [
        {
          "internalType": "uint256",
          "name": "penalty",
          "type": "uint256"
        },
        {
          "internalType": "uint256",
          "name": "remainingAmount",
          "type": "uint256"
        }
      ],
      "stateMutability": "view",
      "type": "function"
    },
    {
      "inputs": [
        {
          "internalType": "uint256",
          "name": "amount",
          "type": "uint256"
        },
        {
          "internalType": "uint256",
          "name": "customPercentage",
          "type": "uint256"
        }
      ],
      "name": "calculatePenaltyWithPercentage",
      "outputs": [
        {
          "internalType": "uint256",
          "name": "penalty",
          "type": "uint256"
        },
        {
          "internalType": "uint256",
          "name": "remainingAmount",
          "type": "uint256"
        }
      ],
      "stateMutability": "pure",
      "type": "function"
    },
    {
      "inputs": [
        {
          "internalType": "uint256",
          "name": "vaultId",
          "type": "uint256"
        },
        {
          "internalType": "uint256",
          "name": "amount",
          "type": "uint256"
        }
      ],
      "name": "calculatePenaltyWithVaultId",
      "outputs": [
        {
          "internalType": "uint256",
          "name": "penalty",
          "type": "uint256"
        },
        {
          "internalType": "uint256",
          "name": "remainingAmount",
          "type": "uint256"
        }
      ],
      "stateMutability": "view",
      "type": "function"
    },
    {
      "inputs": [
        {
          "internalType": "address",
          "name": "token",
          "type": "address"
        },
        {
          "internalType": "uint256",
          "name": "amount",
          "type": "uint256"
        }
      ],
      "name": "collectPenalty",
      "outputs": [],
      "stateMutability": "nonpayable",
      "type": "function"
    },
    {
      "inputs": [
        {
          "internalType": "address",
          "name": "token",
          "type": "address"
        },
        {
          "internalType": "uint256",
          "name": "amount",
          "type": "uint256"
        },
        {
          "internalType": "address",
          "name": "recipient",
          "type": "address"
        }
      ],
      "name": "emergencyRecover",
      "outputs": [],
      "stateMutability": "nonpayable",
      "type": "function"
    },
    {
      "inputs": [],
      "name": "getPenaltyPercentageAsPercent",
      "outputs": [
        {
          "internalType": "uint256",
          "name": "",
          "type": "uint256"
        }
      ],
      "stateMutability": "view",
      "type": "function"
    },
    {
      "inputs": [],
      "name": "getPenaltyPercentageDecimal",
      "outputs": [
        {
          "internalType": "uint256",
          "name": "",
          "type": "uint256"
        }
      ],
      "stateMutability": "view",
      "type": "function"
    },
    {
      "inputs": [],
      "name": "getTreasuryAddress",
      "outputs": [
        {
          "internalType": "address",
          "name": "",
          "type": "address"
        }
      ],
      "stateMutability": "view",
      "type": "function"
    },
    {
      "inputs": [
        {
          "internalType": "address",
          "name": "_owner",
          "type": "address"
        }
      ],
      "name": "initialize",
      "outputs": [],
      "stateMutability": "nonpayable",
      "type": "function"
    },
    {
      "inputs": [
        {
          "internalType": "uint256",
          "name": "amount",
          "type": "uint256"
        }
      ],
      "name": "isPenaltyAcceptable",
      "outputs": [
        {
          "internalType": "bool",
          "name": "",
          "type": "bool"
        }
      ],
      "stateMutability": "view",
      "type": "function"
    },
    {
      "inputs": [],
      "name": "owner",
      "outputs": [
        {
          "internalType": "address",
          "name": "",
          "type": "address"
        }
      ],
      "stateMutability": "view",
      "type": "function"
    },
    {
      "inputs": [],
      "name": "penaltyPercentage",
      "outputs": [
        {
          "internalType": "uint256",
          "name": "",
          "type": "uint256"
        }
      ],
      "stateMutability": "view",
      "type": "function"
    },
    {
      "inputs": [],
      "name": "proxiableUUID",
      "outputs": [
        {
          "internalType": "bytes32",
          "name": "",
          "type": "bytes32"
        }
      ],
      "stateMutability": "view",
      "type": "function"
    },
    {
      "inputs": [],
      "name": "renounceOwnership",
      "outputs": [],
      "stateMutability": "nonpayable",
      "type": "function"
    },
    {
      "inputs": [
        {
          "internalType": "address",
          "name": "newOwner",
          "type": "address"
        }
      ],
      "name": "transferOwnership",
      "outputs": [],
      "stateMutability": "nonpayable",
      "type": "function"
    },
    {
      "inputs": [],
      "name": "treasuryAddress",
      "outputs": [
        {
          "internalType": "address",
          "name": "",
          "type": "address"
        }
      ],
      "stateMutability": "view",
      "type": "function"
    },
    {
      "inputs": [
        {
          "internalType": "uint256",
          "name": "newPercentage",
          "type": "uint256"
        }
      ],
      "name": "updatePenaltyPercentage",
      "outputs": [],
      "stateMutability": "nonpayable",
      "type": "function"
    },
    {
      "inputs": [
        {
          "internalType": "address",
          "name": "newTreasury",
          "type": "address"
        }
      ],
      "name": "updateTreasuryAddress",
      "outputs": [],
      "stateMutability": "nonpayable",
      "type": "function"
    },
    {
      "inputs": [
        {
          "internalType": "address",
          "name": "newImplementation",
          "type": "address"
        },
        {
          "internalType": "bytes",
          "name": "data",
          "type": "bytes"
        }
      ],
      "name": "upgradeToAndCall",
      "outputs": [],
      "stateMutability": "payable",
      "type": "function"
    }
  ],
  "bytecode": "0x60a0604052306080526103e860005534801561001a57600080fd5b50610023610028565b6100da565b7ff0c57e16840df040f15088dc2f81fe391c3923bec73e23a9662efc9c229c6a00805468010000000000000000900460ff16156100785760405163f92ee8a960e01b815260040160405180910390fd5b80546001600160401b03908116146100d75780546001600160401b0319166001600160401b0390811782556040519081527fc7f505b2f371ae2175ee4913f4499e1f2633a7b5936321eed1cdaeb6115181d29060200160405180910390a15b50565b6080516115cf61010360003960008181610d3e01528181610d670152610ee401526115cf6000f3fe6080604052600436106101355760003560e01c8063853b37bc116100ab578063c4d66de81161006f578063c4d66de814610376578063c5f956af14610396578063e0024604146103b6578063e1f1c4a7146103d4578063eb961693146103ea578063f2fde38b1461040a57600080fd5b8063853b37bc146102a75780638da5cb5b146102bc5780638e08ce701461030d578063a72ca42314610322578063ad3cb1cc1461033857600080fd5b80634f1ef286116100fd5780634f1ef2861461020a57806352d1902d1461021d5780635e61b3eb1461023257806371292c9d14610252578063715018a614610272578063841e45611461028757600080fd5b80630865ab341461013a578063086f93a81461016f57806315908d51146101915780631a515ea5146101b55780634ecce451146101ea575b600080fd5b34801561014657600080fd5b5061015a61015536600461127a565b61042a565b60405190151581526020015b60405180910390f35b34801561017b57600080fd5b5061018f61018a3660046112af565b610460565b005b34801561019d57600080fd5b506101a760005481565b604051908152602001610166565b3480156101c157600080fd5b506101d56101d03660046112eb565b610601565b60408051928352602083019190915201610166565b3480156101f657600080fd5b506101d561020536600461127a565b61066c565b61018f610218366004611323565b6106d5565b34801561022957600080fd5b506101a76106f4565b34801561023e57600080fd5b506101d561024d3660046112eb565b610711565b34801561025e57600080fd5b5061018f61026d3660046113ed565b61077c565b34801561027e57600080fd5b5061018f61092c565b34801561029357600080fd5b5061018f6102a2366004611417565b610940565b3480156102b357600080fd5b506101a7610a47565b3480156102c857600080fd5b507f9016d09d72d40fdae2fd8ceac6b6234c7706214fd39c1cd1e609a0528c199300546001600160a01b03165b6040516001600160a01b039091168152602001610166565b34801561031957600080fd5b506000546101a7565b34801561032e57600080fd5b506101a76107d081565b34801561034457600080fd5b50610369604051806040016040528060058152602001640352e302e360dc1b81525081565b6040516101669190611456565b34801561038257600080fd5b5061018f610391366004611417565b610a5d565b3480156103a257600080fd5b506001546102f5906001600160a01b031681565b3480156103c257600080fd5b506001546001600160a01b03166102f5565b3480156103e057600080fd5b506101a761271081565b3480156103f657600080fd5b5061018f61040536600461127a565b610bc3565b34801561041657600080fd5b5061018f610425366004611417565b610c9a565b6000806127106000548461043e919061149f565b61044891906114b6565b905060008111801561045957508281105b9392505050565b610468610cd8565b6001600160a01b0383166104bb5760405162461bcd60e51b8152602060048201526015602482015274496e76616c696420746f6b656e206164647265737360581b60448201526064015b60405180910390fd5b6001600160a01b0381166105115760405162461bcd60e51b815260206004820152601960248201527f496e76616c696420726563697069656e7420616464726573730000000000000060448201526064016104b2565b600082116105315760405162461bcd60e51b81526004016104b2906114d8565b60405163a9059cbb60e01b81526001600160a01b0382811660048301526024820184905284169063a9059cbb906044016020604051808303816000875af1158015610580573d6000803e3d6000fd5b505050506040513d601f19601f820116820180604052508101906105a4919061150f565b50336001600160a01b0316816001600160a01b0316846001600160a01b03167f2282d8a3b07f4425561cbf225ce6940046294835b6138ae3ffd45d87a515b516856040516105f491815260200190565b60405180910390a4505050565b600080600083116106245760405162461bcd60e51b81526004016104b2906114d8565b61271060005484610635919061149f565b61063f91906114b6565b91508115801561064f5750600083115b1561065957600191505b6106638284611531565b90509250929050565b6000806000831161068f5760405162461bcd60e51b81526004016104b2906114d8565b612710600054846106a0919061149f565b6106aa91906114b6565b9150811580156106ba5750600083115b156106c457600191505b6106ce8284611531565b9050915091565b6106dd610d33565b6106e682610dd8565b6106f08282610e17565b5050565b60006106fe610ed9565b5060008051602061157a83398151915290565b6000806107d08311156107595760405162461bcd60e51b815260206004820152601060248201526f0a0cadcc2d8e8f240e8dede40d0d2ced60831b60448201526064016104b2565b612710610766848661149f565b61077091906114b6565b91506106638285611531565b610784610f22565b600081116107a45760405162461bcd60e51b81526004016104b2906114d8565b6001600160a01b0382166107f25760405162461bcd60e51b8152602060048201526015602482015274496e76616c696420746f6b656e206164647265737360581b60448201526064016104b2565b6001546001600160a01b031661083d5760405162461bcd60e51b815260206004820152601060248201526f151c99585cdd5c9e481b9bdd081cd95d60821b60448201526064016104b2565b6001546040516323b872dd60e01b81523360048201526001600160a01b03918216602482015260448101839052908316906323b872dd906064016020604051808303816000875af1158015610896573d6000803e3d6000fd5b505050506040513d601f19601f820116820180604052508101906108ba919061150f565b5060015460405182815233916001600160a01b0390811691908516907f491493be629053e58987e1eefe74532b00af30e0b7bddf0710eea5c56c913abc9060200160405180910390a46106f060017f9b779b17422d0df92223018b32b4d1fa46e071723d6817e2486d003becc55f0055565b610934610cd8565b61093e6000610f92565b565b610948610cd8565b6001600160a01b03811661099e5760405162461bcd60e51b815260206004820152601860248201527f496e76616c69642074726561737572792061646472657373000000000000000060448201526064016104b2565b6001546001600160a01b03908116908216036109f45760405162461bcd60e51b815260206004820152601560248201527453616d65207472656173757279206164647265737360581b60448201526064016104b2565b600180546001600160a01b038381166001600160a01b031983168117909355604051911691339183907f3b9c7df7171962764bbf867e95fa6bf212b38a588555c60b4f39a1ab2e60d64990600090a45050565b60006064600054610a5891906114b6565b905090565b6000610a67611003565b805490915060ff600160401b820416159067ffffffffffffffff16600081158015610a8f5750825b905060008267ffffffffffffffff166001148015610aac5750303b155b905081158015610aba575080155b15610ad85760405163f92ee8a960e01b815260040160405180910390fd5b845467ffffffffffffffff191660011785558315610b0257845460ff60401b1916600160401b1785555b610b0b8661102e565b610b1361103f565b610b1b61104f565b600180546001600160a01b0319166001600160a01b03881690811790915560005460408051918252602082018390527f8659e73b13b3bb296b3d4884491ee25c462d45d2a4656bad0e934818728c03a4910160405180910390a28315610bbb57845460ff60401b19168555604051600181527fc7f505b2f371ae2175ee4913f4499e1f2633a7b5936321eed1cdaeb6115181d29060200160405180910390a15b505050505050565b610bcb610cd8565b6107d0811115610c105760405162461bcd60e51b815260206004820152601060248201526f0a0cadcc2d8e8f240e8dede40d0d2ced60831b60448201526064016104b2565b6000548103610c535760405162461bcd60e51b815260206004820152600f60248201526e53616d652070657263656e7461676560881b60448201526064016104b2565b6000805490829055604080518281526020810184905233917f2056ac4904e2bd2dd48cb27e2690724f23e373c98822c3600fd4d5b95acd45df910160405180910390a25050565b610ca2610cd8565b6001600160a01b038116610ccc57604051631e4fbdf760e01b8152600060048201526024016104b2565b610cd581610f92565b50565b33610d0a7f9016d09d72d40fdae2fd8ceac6b6234c7706214fd39c1cd1e609a0528c199300546001600160a01b031690565b6001600160a01b03161461093e5760405163118cdaa760e01b81523360048201526024016104b2565b306001600160a01b037f0000000000000000000000000000000000000000000000000000000000000000161480610dba57507f00000000000000000000000000000000000000000000000000000000000000006001600160a01b0316610dae60008051602061157a833981519152546001600160a01b031690565b6001600160a01b031614155b1561093e5760405163703e46dd60e11b815260040160405180910390fd5b610de0610cd8565b6040516001600160a01b038216907f51383e383f4a4fca867a0af8533b2ecc3f6f50d1b700ee2a30be3cd0b6f438ea90600090a250565b816001600160a01b03166352d1902d6040518163ffffffff1660e01b8152600401602060405180830381865afa925050508015610e71575060408051601f3d908101601f19168201909252610e6e91810190611544565b60015b610e9957604051634c9c8ce360e01b81526001600160a01b03831660048201526024016104b2565b60008051602061157a8339815191528114610eca57604051632a87526960e21b8152600481018290526024016104b2565b610ed48383611057565b505050565b306001600160a01b037f0000000000000000000000000000000000000000000000000000000000000000161461093e5760405163703e46dd60e11b815260040160405180910390fd5b7f9b779b17422d0df92223018b32b4d1fa46e071723d6817e2486d003becc55f00805460011901610f6657604051633ee5aeb560e01b815260040160405180910390fd5b60029055565b60017f9b779b17422d0df92223018b32b4d1fa46e071723d6817e2486d003becc55f0055565b7f9016d09d72d40fdae2fd8ceac6b6234c7706214fd39c1cd1e609a0528c19930080546001600160a01b031981166001600160a01b03848116918217845560405192169182907f8be0079c531659141344cd1fd0a4f28419497f9722a3daafe3b4186f6b6457e090600090a3505050565b6000807ff0c57e16840df040f15088dc2f81fe391c3923bec73e23a9662efc9c229c6a005b92915050565b6110366110ad565b610cd5816110d2565b6110476110ad565b61093e6110da565b61093e6110ad565b611060826110e2565b6040516001600160a01b038316907fbc7cd75a20ee27fd9adebab32041f755214dbc6bffa90cc0225b39da2e5c2d3b90600090a28051156110a557610ed48282611147565b6106f06111bd565b6110b56111dc565b61093e57604051631afcd79f60e31b815260040160405180910390fd5b610ca26110ad565b610f6c6110ad565b806001600160a01b03163b60000361111857604051634c9c8ce360e01b81526001600160a01b03821660048201526024016104b2565b60008051602061157a83398151915280546001600160a01b0319166001600160a01b0392909216919091179055565b6060600080846001600160a01b031684604051611164919061155d565b600060405180830381855af49150503d806000811461119f576040519150601f19603f3d011682016040523d82523d6000602084013e6111a4565b606091505b50915091506111b48583836111f6565b95945050505050565b341561093e5760405163b398979f60e01b815260040160405180910390fd5b60006111e6611003565b54600160401b900460ff16919050565b60608261120b5761120682611252565b610459565b815115801561122257506001600160a01b0384163b155b1561124b57604051639996b31560e01b81526001600160a01b03851660048201526024016104b2565b5092915050565b80511561126157805160208201fd5b60405163d6bda27560e01b815260040160405180910390fd5b60006020828403121561128c57600080fd5b5035919050565b80356001600160a01b03811681146112aa57600080fd5b919050565b6000806000606084860312156112c457600080fd5b6112cd84611293565b9250602084013591506112e260408501611293565b90509250925092565b600080604083850312156112fe57600080fd5b50508035926020909101359150565b634e487b7160e01b600052604160045260246000fd5b6000806040838503121561133657600080fd5b61133f83611293565b9150602083013567ffffffffffffffff81111561135b57600080fd5b8301601f8101851361136c57600080fd5b803567ffffffffffffffff8111156113865761138661130d565b604051601f8201601f19908116603f0116810167ffffffffffffffff811182821017156113b5576113b561130d565b6040528181528282016020018710156113cd57600080fd5b816020840160208301376000602083830101528093505050509250929050565b6000806040838503121561140057600080fd5b61140983611293565b946020939093013593505050565b60006020828403121561142957600080fd5b61045982611293565b60005b8381101561144d578181015183820152602001611435565b50506000910152565b6020815260008251806020840152611475816040850160208701611432565b601f01601f19169190910160400192915050565b634e487b7160e01b600052601160045260246000fd5b808202811582820484141761102857611028611489565b6000826114d357634e487b7160e01b600052601260045260246000fd5b500490565b6020808252601d908201527f416d6f756e74206d7573742062652067726561746572207468616e2030000000604082015260600190565b60006020828403121561152157600080fd5b8151801515811461045957600080fd5b8181038181111561102857611028611489565b60006020828403121561155657600080fd5b5051919050565b6000825161156f818460208701611432565b919091019291505056fe360894a13ba1a3210667c828492db98dca3e2076cc3735a920a3ca505d382bbca26469706673582212209691c1614d1135ecfda28448b84de5c950f5cde2ad30ef97e5a08b8ec4e8d97e64736f6c634300081c0033",
  "linkReferences": {},
  "deployedLinkReferences": {}
}