{
  "_format": "hh-sol-artifact-1",
  "contractName": "SavingsVault",
  "sourceName": "contracts/SavingsVault.sol",
  "abi": [
    {
      "inputs": [],
      "stateMutability": "nonpayable",
      "type": "constructor"
    },
    {
      "inputs": [
        {
          "internalType": "address",
          "name": "target",
          "type": "address"
        }
      ],
      "name": "AddressEmptyCode",
      "type": "error"
    },
    {
      "inputs": [
        {
          "internalType": "address",
          "name": "implementation",
          "type": "address"
        }
      ],
      "name": "ERC1967InvalidImplementation",
      "type": "error"
    },
    {
      "inputs": [],
      "name": "ERC1967NonPayable",
      "type": "error"
    },
    {
      "inputs": [],
      "name": "FailedCall",
      "type": "error"
    },
    {
      "inputs": [],
      "name": "InvalidInitialization",
      "type": "error"
    },
    {
      "inputs": [],
      "name": "NotInitializing",
      "type": "error"
    },
    {
      "inputs": [
        {
          "internalType": "address",
          "name": "owner",
          "type": "address"
        }
      ],
      "name": "OwnableInvalidOwner",
      "type": "error"
    },
    {
      "inputs": [
        {
          "internalType": "address",
          "name": "account",
          "type": "address"
        }
      ],
      "name": "OwnableUnauthorizedAccount",
      "type": "error"
    },
    {
      "inputs": [],
      "name": "ReentrancyGuardReentrantCall",
      "type": "error"
    },
    {
      "inputs": [
        {
          "internalType": "address",
          "name": "token",
          "type": "address"
        }
      ],
      "name": "SafeERC20FailedOperation",
      "type": "error"
    },
    {
      "inputs": [],
      "name": "UUPSUnauthorizedCallContext",
      "type": "error"
    },
    {
      "inputs": [
        {
          "internalType": "bytes32",
          "name": "slot",
          "type": "bytes32"
        }
      ],
      "name": "UUPSUnsupportedProxiableUUID",
      "type": "error"
    },
    {
      "anonymous": false,
      "inputs": [
        {
          "indexed": true,
          "internalType": "address",
          "name": "owner",
          "type": "address"
        },
        {
          "indexed": false,
          "internalType": "uint256",
          "name": "amount",
          "type": "uint256"
        },
        {
          "indexed": false,
          "internalType": "uint256",
          "name": "timestamp",
          "type": "uint256"
        }
      ],
      "name": "CompletedWithdrawal",
      "type": "event"
    },
    {
      "anonymous": false,
      "inputs": [
        {
          "indexed": true,
          "internalType": "address",
          "name": "owner",
          "type": "address"
        },
        {
          "indexed": false,
          "internalType": "uint256",
          "name": "penalty",
          "type": "uint256"
        },
        {
          "indexed": false,
          "internalType": "uint256",
          "name": "returned",
          "type": "uint256"
        },
        {
          "indexed": false,
          "internalType": "uint256",
          "name": "timestamp",
          "type": "uint256"
        }
      ],
      "name": "EarlyWithdrawal",
      "type": "event"
    },
    {
      "anonymous": false,
      "inputs": [
        {
          "indexed": true,
          "internalType": "address",
          "name": "owner",
          "type": "address"
        },
        {
          "indexed": false,
          "internalType": "uint256",
          "name": "amount",
          "type": "uint256"
        },
        {
          "indexed": false,
          "internalType": "uint256",
          "name": "timestamp",
          "type": "uint256"
        }
      ],
      "name": "EmergencyWithdrawal",
      "type": "event"
    },
    {
      "anonymous": false,
      "inputs": [
        {
          "indexed": true,
          "internalType": "address",
          "name": "owner",
          "type": "address"
        },
        {
          "indexed": false,
          "internalType": "uint256",
          "name": "amount",
          "type": "uint256"
        },
        {
          "indexed": false,
          "internalType": "uint256",
          "name": "unlockTime",
          "type": "uint256"
        },
        {
          "indexed": false,
          "internalType": "uint256",
          "name": "lockStartTime",
          "type": "uint256"
        }
      ],
      "name": "FundsLocked",
      "type": "event"
    },
    {
      "anonymous": false,
      "inputs": [
        {
          "indexed": false,
          "internalType": "uint64",
          "name": "version",
          "type": "uint64"
        }
      ],
      "name": "Initialized",
      "type": "event"
    },
    {
      "anonymous": false,
      "inputs": [
        {
          "indexed": true,
          "internalType": "address",
          "name": "previousOwner",
          "type": "address"
        },
        {
          "indexed": true,
          "internalType": "address",
          "name": "newOwner",
          "type": "address"
        }
      ],
      "name": "OwnershipTransferred",
      "type": "event"
    },
    {
      "anonymous": false,
      "inputs": [
        {
          "indexed": true,
          "internalType": "address",
          "name": "implementation",
          "type": "address"
        }
      ],
      "name": "Upgraded",
      "type": "event"
    },
    {
      "anonymous": false,
      "inputs": [
        {
          "indexed": true,
          "internalType": "address",
          "name": "owner",
          "type": "address"
        },
        {
          "indexed": true,
          "internalType": "address",
          "name": "token",
          "type": "address"
        },
        {
          "indexed": false,
          "internalType": "uint256",
          "name": "amount",
          "type": "uint256"
        },
        {
          "indexed": false,
          "internalType": "uint256",
          "name": "duration",
          "type": "uint256"
        },
        {
          "indexed": false,
          "internalType": "uint256",
          "name": "unlockTime",
          "type": "uint256"
        }
      ],
      "name": "VaultCreated",
      "type": "event"
    },
    {
      "anonymous": false,
      "inputs": [
        {
          "indexed": true,
          "internalType": "address",
          "name": "owner",
          "type": "address"
        },
        {
          "indexed": false,
          "internalType": "uint256",
          "name": "timestamp",
          "type": "uint256"
        }
      ],
      "name": "VaultPaused",
      "type": "event"
    },
    {
      "anonymous": false,
      "inputs": [
        {
          "indexed": true,
          "internalType": "address",
          "name": "owner",
          "type": "address"
        },
        {
          "indexed": false,
          "internalType": "uint256",
          "name": "timestamp",
          "type": "uint256"
        }
      ],
      "name": "VaultResumed",
      "type": "event"
    },
    {
      "inputs": [],
      "name": "LOCK_1_MONTH",
      "outputs": [
        {
          "internalType": "uint256",
          "name": "",
          "type": "uint256"
        }
      ],
      "stateMutability": "view",
      "type": "function"
    },
    {
      "inputs": [],
      "name": "LOCK_1_YEAR",
      "outputs": [
        {
          "internalType": "uint256",
          "name": "",
          "type": "uint256"
        }
      ],
      "stateMutability": "view",
      "type": "function"
    },
    {
      "inputs": [],
      "name": "LOCK_2_MONTHS",
      "outputs": [
        {
          "internalType": "uint256",
          "name": "",
          "type": "uint256"
        }
      ],
      "stateMutability": "view",
      "type": "function"
    },
    {
      "inputs": [],
      "name": "LOCK_3_MONTHS",
      "outputs": [
        {
          "internalType": "uint256",
          "name": "",
          "type": "uint256"
        }
      ],
      "stateMutability": "view",
      "type": "function"
    },
    {
      "inputs": [],
      "name": "LOCK_4_MONTHS",
      "outputs": [
        {
          "internalType": "uint256",
          "name": "",
          "type": "uint256"
        }
      ],
      "stateMutability": "view",
      "type": "function"
    },
    {
      "inputs": [],
      "name": "LOCK_5_MONTHS",
      "outputs": [
        {
          "internalType": "uint256",
          "name": "",
          "type": "uint256"
        }
      ],
      "stateMutability": "view",
      "type": "function"
    },
    {
      "inputs": [],
      "name": "LOCK_6_MONTHS",
      "outputs": [
        {
          "internalType": "uint256",
          "name": "",
          "type": "uint256"
        }
      ],
      "stateMutability": "view",
      "type": "function"
    },
    {
      "inputs": [],
      "name": "MAX_LOCK_DURATION",
      "outputs": [
        {
          "internalType": "uint256",
          "name": "",
          "type": "uint256"
        }
      ],
      "stateMutability": "view",
      "type": "function"
    },
    {
      "inputs": [],
      "name": "MIN_LOCK_DURATION",
      "outputs": [
        {
          "internalType": "uint256",
          "name": "",
          "type": "uint256"
        }
      ],
      "stateMutability": "view",
      "type": "function"
    },
    {
      "inputs": [],
      "name": "UPGRADE_INTERFACE_VERSION",
      "outputs": [
        {
          "internalType": "string",
          "name": "",
          "type": "string"
        }
      ],
      "stateMutability": "view",
      "type": "function"
    },
    {
      "inputs": [],
      "name": "canWithdraw",
      "outputs": [
        {
          "internalType": "bool",
          "name": "",
          "type": "bool"
        }
      ],
      "stateMutability": "view",
      "type": "function"
    },
    {
      "inputs": [],
      "name": "canWithdrawEarly",
      "outputs": [
        {
          "internalType": "bool",
          "name": "",
          "type": "bool"
        }
      ],
      "stateMutability": "view",
      "type": "function"
    },
    {
      "inputs": [],
      "name": "emergencyWithdraw",
      "outputs": [],
      "stateMutability": "nonpayable",
      "type": "function"
    },
    {
      "inputs": [],
      "name": "getAvailableLockDurations",
      "outputs": [
        {
          "internalType": "uint256[]",
          "name": "",
          "type": "uint256[]"
        }
      ],
      "stateMutability": "pure",
      "type": "function"
    },
    {
      "inputs": [
        {
          "internalType": "uint256",
          "name": "duration",
          "type": "uint256"
        }
      ],
      "name": "getLockDurationInMonths",
      "outputs": [
        {
          "internalType": "uint256",
          "name": "",
          "type": "uint256"
        }
      ],
      "stateMutability": "pure",
      "type": "function"
    },
    {
      "inputs": [],
      "name": "getRemainingTime",
      "outputs": [
        {
          "internalType": "uint256",
          "name": "",
          "type": "uint256"
        }
      ],
      "stateMutability": "view",
      "type": "function"
    },
    {
      "inputs": [],
      "name": "getVaultBalance",
      "outputs": [
        {
          "internalType": "uint256",
          "name": "",
          "type": "uint256"
        }
      ],
      "stateMutability": "view",
      "type": "function"
    },
    {
      "inputs": [],
      "name": "getVaultInfo",
      "outputs": [
        {
          "components": [
            {
              "internalType": "address",
              "name": "owner",
              "type": "address"
            },
            {
              "internalType": "address",
              "name": "token",
              "type": "address"
            },
            {
              "internalType": "uint256",
              "name": "amount",
              "type": "uint256"
            },
            {
              "internalType": "uint256",
              "name": "lockStartTime",
              "type": "uint256"
            },
            {
              "internalType": "uint256",
              "name": "lockDuration",
              "type": "uint256"
            },
            {
              "internalType": "uint256",
              "name": "unlockTime",
              "type": "uint256"
            },
            {
              "internalType": "enum SavingsVault.VaultStatus",
              "name": "status",
              "type": "uint8"
            },
            {
              "internalType": "bool",
              "name": "isActive",
              "type": "bool"
            }
          ],
          "internalType": "struct SavingsVault.Vault",
          "name": "",
          "type": "tuple"
        }
      ],
      "stateMutability": "view",
      "type": "function"
    },
    {
      "inputs": [],
      "name": "getVaultStatusString",
      "outputs": [
        {
          "internalType": "string",
          "name": "",
          "type": "string"
        }
      ],
      "stateMutability": "view",
      "type": "function"
    },
    {
      "inputs": [
        {
          "internalType": "address",
          "name": "_owner",
          "type": "address"
        },
        {
          "internalType": "address",
          "name": "_token",
          "type": "address"
        },
        {
          "internalType": "uint256",
          "name": "_amount",
          "type": "uint256"
        },
        {
          "internalType": "uint256",
          "name": "_duration",
          "type": "uint256"
        }
      ],
      "name": "initialize",
      "outputs": [],
      "stateMutability": "nonpayable",
      "type": "function"
    },
    {
      "inputs": [
        {
          "internalType": "uint256",
          "name": "duration",
          "type": "uint256"
        }
      ],
      "name": "isPredefinedDuration",
      "outputs": [
        {
          "internalType": "bool",
          "name": "",
          "type": "bool"
        }
      ],
      "stateMutability": "pure",
      "type": "function"
    },
    {
      "inputs": [],
      "name": "isUnlocked",
      "outputs": [
        {
          "internalType": "bool",
          "name": "",
          "type": "bool"
        }
      ],
      "stateMutability": "view",
      "type": "function"
    },
    {
      "inputs": [],
      "name": "owner",
      "outputs": [
        {
          "internalType": "address",
          "name": "",
          "type": "address"
        }
      ],
      "stateMutability": "view",
      "type": "function"
    },
    {
      "inputs": [],
      "name": "pauseVault",
      "outputs": [],
      "stateMutability": "nonpayable",
      "type": "function"
    },
    {
      "inputs": [],
      "name": "proxiableUUID",
      "outputs": [
        {
          "internalType": "bytes32",
          "name": "",
          "type": "bytes32"
        }
      ],
      "stateMutability": "view",
      "type": "function"
    },
    {
      "inputs": [],
      "name": "renounceOwnership",
      "outputs": [],
      "stateMutability": "nonpayable",
      "type": "function"
    },
    {
      "inputs": [],
      "name": "resumeVault",
      "outputs": [],
      "stateMutability": "nonpayable",
      "type": "function"
    },
    {
      "inputs": [
        {
          "internalType": "address",
          "name": "newOwner",
          "type": "address"
        }
      ],
      "name": "transferOwnership",
      "outputs": [],
      "stateMutability": "nonpayable",
      "type": "function"
    },
    {
      "inputs": [
        {
          "internalType": "address",
          "name": "newImplementation",
          "type": "address"
        },
        {
          "internalType": "bytes",
          "name": "data",
          "type": "bytes"
        }
      ],
      "name": "upgradeToAndCall",
      "outputs": [],
      "stateMutability": "payable",
      "type": "function"
    },
    {
      "inputs": [],
      "name": "vault",
      "outputs": [
        {
          "internalType": "address",
          "name": "owner",
          "type": "address"
        },
        {
          "internalType": "address",
          "name": "token",
          "type": "address"
        },
        {
          "internalType": "uint256",
          "name": "amount",
          "type": "uint256"
        },
        {
          "internalType": "uint256",
          "name": "lockStartTime",
          "type": "uint256"
        },
        {
          "internalType": "uint256",
          "name": "lockDuration",
          "type": "uint256"
        },
        {
          "internalType": "uint256",
          "name": "unlockTime",
          "type": "uint256"
        },
        {
          "internalType": "enum SavingsVault.VaultStatus",
          "name": "status",
          "type": "uint8"
        },
        {
          "internalType": "bool",
          "name": "isActive",
          "type": "bool"
        }
      ],
      "stateMutability": "view",
      "type": "function"
    },
    {
      "inputs": [],
      "name": "withdrawCompleted",
      "outputs": [],
      "stateMutability": "nonpayable",
      "type": "function"
    },
    {
      "inputs": [
        {
          "internalType": "uint256",
          "name": "penaltyAmount",
          "type": "uint256"
        }
      ],
      "name": "withdrawEarly",
      "outputs": [],
      "stateMutability": "nonpayable",
      "type": "function"
    }
  ],
  "bytecode": "0x60a06040523060805234801561001457600080fd5b5061001d610022565b6100d4565b7ff0c57e16840df040f15088dc2f81fe391c3923bec73e23a9662efc9c229c6a00805468010000000000000000900460ff16156100725760405163f92ee8a960e01b815260040160405180910390fd5b80546001600160401b03908116146100d15780546001600160401b0319166001600160401b0390811782556040519081527fc7f505b2f371ae2175ee4913f4499e1f2633a7b5936321eed1cdaeb6115181d29060200160405180910390a15b50565b608051611ff36100fd6000396000818161160001528181611629015261176a0152611ff36000f3fe6080604052600436106101e35760003560e01c80638da5cb5b11610102578063c0a9c35d11610095578063edb5e02411610064578063edb5e024146104c4578063efb98bcf146104db578063f2fde38b146104f0578063fbfa77cf1461051057600080fd5b8063c0a9c35d14610463578063db2e21bc1461047a578063eb990c591461048f578063ed12e8ef146104af57600080fd5b8063ad3cb1cc116100d1578063ad3cb1cc146103d9578063afbc4ffc14610417578063b3b4c96614610439578063b51459fe1461044e57600080fd5b80638da5cb5b1461036257806395a4cdcb1461038f5780639e0879c2146103a4578063a992f22a146103b957600080fd5b80634f4b48f21161017a57806378b4330f1161014957806378b4330f146102ec5780637f61559f146103035780637f98aa71146103285780638380edb71461034a57600080fd5b80634f4b48f2146102a257806352d1902d146102c2578063715018a6146102d7578063770964db146102ec57600080fd5b806339a0dccc116101b657806339a0dccc146102575780634a51cac0146102775780634f1bfc9e146102775780634f1ef2861461028f57600080fd5b8063046ee2b8146101e857806311149445146102125780632dd0d998146102295780632e37eda314610240575b600080fd5b3480156101f457600080fd5b506101ff629e340081565b6040519081526020015b60405180910390f35b34801561021e57600080fd5b506101ff6276a70081565b34801561023557600080fd5b506101ff62c5c10081565b34801561024c57600080fd5b5061025561056b565b005b34801561026357600080fd5b506101ff610272366004611ba2565b610722565b34801561028357600080fd5b506101ff6301e1338081565b61025561029d366004611bed565b610737565b3480156102ae57600080fd5b506102556102bd366004611ba2565b610756565b3480156102ce57600080fd5b506101ff6109c0565b3480156102e357600080fd5b506102556109dd565b3480156102f857600080fd5b506101ff62278d0081565b34801561030f57600080fd5b506103186109ef565b6040519015158152602001610209565b34801561033457600080fd5b5061033d610a31565b6040516102099190611cef565b34801561035657600080fd5b50600554421015610318565b34801561036e57600080fd5b50610377610ad1565b6040516001600160a01b039091168152602001610209565b34801561039b57600080fd5b50610255610aff565b3480156103b057600080fd5b50610255610b61565b3480156103c557600080fd5b506103186103d4366004611ba2565b610bb3565b3480156103e557600080fd5b5061040a604051806040016040528060058152602001640352e302e360dc1b81525081565b6040516102099190611d80565b34801561042357600080fd5b5061042c610c0c565b6040516102099190611db3565b34801561044557600080fd5b5061040a610d2e565b34801561045a57600080fd5b50610318610e25565b34801561046f57600080fd5b506101ff62ed4e0081565b34801561048657600080fd5b50610255610e66565b34801561049b57600080fd5b506102556104aa366004611df6565b611043565b3480156104bb57600080fd5b506101ff61148a565b3480156104d057600080fd5b506101ff624f1a0081565b3480156104e757600080fd5b506101ff6114f7565b3480156104fc57600080fd5b5061025561050b366004611e38565b611517565b34801561051c57600080fd5b50600054600154600254600354600454600554600654610557966001600160a01b039081169616949392919060ff8082169161010090041688565b604051610209989796959493929190611e53565b6000546001600160a01b031633146105bd5760405162461bcd60e51b815260206004820152601060248201526f27b7363c903b30bab63a1037bbb732b960811b60448201526064015b60405180910390fd5b600654610100900460ff166105e45760405162461bcd60e51b81526004016105b490611eaa565b600060065460ff1660028111156105fd576105fd611cb7565b1461063d5760405162461bcd60e51b815260206004820152601060248201526f15985d5b1d081b9bdd081b1bd8dad95960821b60448201526064016105b4565b610645611552565b6005544210156106905760405162461bcd60e51b815260206004820152601660248201527515985d5b1d081b9bdd081e595d081d5b9b1bd8dad95960521b60448201526064016105b4565b600280546006805461ffff19169092179091556000546001546106c0916001600160a01b0391821691168361158a565b600054604080518381524260208201526001600160a01b03909216917ffa67cf348be4448bccfc6762cb1c5909d9bd75f8b36340872086f12dff6f36ff91015b60405180910390a2506107206001600080516020611f9e83398151915255565b565b600061073162278d0083611eea565b92915050565b61073f6115f5565b6107488261169a565b61075282826116a2565b5050565b6000546001600160a01b031633146107a35760405162461bcd60e51b815260206004820152601060248201526f27b7363c903b30bab63a1037bbb732b960811b60448201526064016105b4565b600654610100900460ff166107ca5760405162461bcd60e51b81526004016105b490611eaa565b600060065460ff1660028111156107e3576107e3611cb7565b146108235760405162461bcd60e51b815260206004820152601060248201526f15985d5b1d081b9bdd081b1bd8dad95960821b60448201526064016105b4565b61082b611552565b60055442106108755760405162461bcd60e51b815260206004820152601660248201527515985d5b1d08185b1c9958591e481d5b9b1bd8dad95960521b60448201526064016105b4565b600081116108c55760405162461bcd60e51b815260206004820152601e60248201527f50656e616c7479206d7573742062652067726561746572207468616e2030000060448201526064016105b4565b60025481106109165760405162461bcd60e51b815260206004820152601c60248201527f50656e616c74792063616e6e6f742065786365656420616d6f756e740000000060448201526064016105b4565b600254600090610927908390611f0c565b6006805461ffff191660019081179091556000549054919250610957916001600160a01b0390811691168361158a565b6000546040805184815260208101849052428183015290516001600160a01b03909216917fff5f5df32598354b364ecd3ce0b4e70e85b237ec68f8193b3faa422c8ddffd219181900360600190a2506109bd6001600080516020611f9e83398151915255565b50565b60006109ca61175f565b50600080516020611f7e83398151915290565b6109e56117a8565b61072060006117da565b600654600090610100900460ff168015610a1f5750600060065460ff166002811115610a1d57610a1d611cb7565b145b8015610a2c575060055442105b905090565b610a39611b3a565b6040805161010081018252600080546001600160a01b03908116835260015416602083015260028054938301939093526003546060830152600454608083015260055460a08301526006549192909160c084019160ff90911690811115610aa257610aa2611cb7565b6002811115610ab357610ab3611cb7565b815260069190910154610100900460ff161515602090910152919050565b7f9016d09d72d40fdae2fd8ceac6b6234c7706214fd39c1cd1e609a0528c199300546001600160a01b031690565b610b076117a8565b6006805461ff0019166101001790556000546040516001600160a01b03909116907f5e8526ee3954b37e3817ddd2a2af5028e0bd006511f190d1deeb43d15d0a18cd90610b579042815260200190565b60405180910390a2565b610b696117a8565b6006805461ff00191690556000546040514281526001600160a01b03909116907f57847ecb0caf57ab272aebf4d12c2e00b717d17e11280577d5302fd2f6a901ae90602001610b57565b600062278d00821480610bc85750624f1a0082145b80610bd557506276a70082145b80610be25750629e340082145b80610bef575062c5c10082145b80610bfc575062ed4e0082145b806107315750506301e133801490565b6040805160078082526101008201909252606091600091906020820160e08036833701905050905062278d0081600081518110610c4b57610c4b611f1f565b602002602001018181525050624f1a0081600181518110610c6e57610c6e611f1f565b6020026020010181815250506276a70081600281518110610c9157610c91611f1f565b602002602001018181525050629e340081600381518110610cb457610cb4611f1f565b60200260200101818152505062c5c10081600481518110610cd757610cd7611f1f565b60200260200101818152505062ed4e0081600581518110610cfa57610cfa611f1f565b6020026020010181815250506301e1338081600681518110610d1e57610d1e611f1f565b6020908102919091010152919050565b6060600060065460ff166002811115610d4957610d49611cb7565b03610d6f57506040805180820190915260068152651313d0d2d15160d21b602082015290565b600160065460ff166002811115610d8857610d88611cb7565b03610db7575060408051808201909152600f81526e57495448445241574e5f4541524c5960881b602082015290565b600260065460ff166002811115610dd057610dd0611cb7565b03610e03575060408051808201909152601381527215d2551211149055d397d0d3d3541311551151606a1b602082015290565b506040805180820190915260078152662aa725a727aba760c91b602082015290565b600654600090610100900460ff168015610e555750600060065460ff166002811115610e5357610e53611cb7565b145b8015610a2c57505060055442101590565b610e6e6117a8565b600654610100900460ff16610e955760405162461bcd60e51b81526004016105b490611eaa565b610e9d611552565b6001546040516370a0823160e01b81523060048201526000916001600160a01b0316906370a0823190602401602060405180830381865afa158015610ee6573d6000803e3d6000fd5b505050506040513d601f19601f82011682018060405250810190610f0a9190611f35565b905060008111610f555760405162461bcd60e51b81526020600482015260166024820152754e6f2062616c616e636520746f20776974686472617760501b60448201526064016105b4565b600060065460ff166002811115610f6e57610f6e611cb7565b148015610f835750600654610100900460ff16155b610fcf5760405162461bcd60e51b815260206004820152601c60248201527f5661756c74206e6f7420696e20656d657267656e63792073746174650000000060448201526064016105b4565b6006805461ff0019169055610ff8610fe5610ad1565b6001546001600160a01b0316908361158a565b611000610ad1565b6001600160a01b03167f56da9a5ae0bcf6e7c3fdd78a10550e7d0458de1c39bfb7f6e96a3e92dd344a688242604051610700929190918252602082015260400190565b600061104d61184b565b805490915060ff600160401b820416159067ffffffffffffffff166000811580156110755750825b905060008267ffffffffffffffff1660011480156110925750303b155b9050811580156110a0575080155b156110be5760405163f92ee8a960e01b815260040160405180910390fd5b845467ffffffffffffffff1916600117855583156110e857845460ff60401b1916600160401b1785555b6110f189611874565b6110f9611885565b611101611895565b6001600160a01b0389166111475760405162461bcd60e51b815260206004820152600d60248201526c24b73b30b634b21037bbb732b960991b60448201526064016105b4565b6001600160a01b03881661118d5760405162461bcd60e51b815260206004820152600d60248201526c24b73b30b634b2103a37b5b2b760991b60448201526064016105b4565b600087116111dd5760405162461bcd60e51b815260206004820152601d60248201527f416d6f756e74206d7573742062652067726561746572207468616e203000000060448201526064016105b4565b62278d0086101561123c5760405162461bcd60e51b8152602060048201526024808201527f4475726174696f6e20746f6f2073686f727420286d696e696d756d20333020646044820152636179732960e01b60648201526084016105b4565b6301e1338086111561129c5760405162461bcd60e51b8152602060048201526024808201527f4475726174696f6e20746f6f206c6f6e6720286d6178696d756d2033363520646044820152636179732960e01b60648201526084016105b4565b6040518061010001604052808a6001600160a01b03168152602001896001600160a01b0316815260200188815260200142815260200187815260200187426112e49190611f4e565b815260200160008152600160209182018190528251600080546001600160a01b039283166001600160a01b0319918216178255938501518354921691909316178155604083015160029081556060840151600355608084015160045560a084015160055560c0840151600680549193909260ff1990921691849081111561136d5761136d611cb7565b021790555060e09190910151600690910180549115156101000261ff00199092169190911790556005546040805189815260208101899052908101919091526001600160a01b0389811691908b16907fb9dc9ef27035dc036fc2a485f5e363db851c2568de0c4f98434b32eafd8ff06a9060600160405180910390a3600554600354604080518a815260208101939093528201526001600160a01b038a16907f5af4208eee53ce73e255da419c79a11f84872cacbc12e8df29b192100ed87ec59060600160405180910390a2831561147f57845460ff60401b19168555604051600181527fc7f505b2f371ae2175ee4913f4499e1f2633a7b5936321eed1cdaeb6115181d29060200160405180910390a15b505050505050505050565b6001546040516370a0823160e01b81523060048201526000916001600160a01b0316906370a0823190602401602060405180830381865afa1580156114d3573d6000803e3d6000fd5b505050506040513d601f19601f82011682018060405250810190610a2c9190611f35565b60055460009042106115095750600090565b600554610a2c904290611f0c565b61151f6117a8565b6001600160a01b03811661154957604051631e4fbdf760e01b8152600060048201526024016105b4565b6109bd816117da565b600080516020611f9e83398151915280546001190161158457604051633ee5aeb560e01b815260040160405180910390fd5b60029055565b604080516001600160a01b038416602482015260448082018490528251808303909101815260649091019091526020810180516001600160e01b031663a9059cbb60e01b1790526115dc90849061189d565b505050565b6001600080516020611f9e83398151915255565b306001600160a01b037f000000000000000000000000000000000000000000000000000000000000000016148061167c57507f00000000000000000000000000000000000000000000000000000000000000006001600160a01b0316611670600080516020611f7e833981519152546001600160a01b031690565b6001600160a01b031614155b156107205760405163703e46dd60e11b815260040160405180910390fd5b6109bd6117a8565b816001600160a01b03166352d1902d6040518163ffffffff1660e01b8152600401602060405180830381865afa9250505080156116fc575060408051601f3d908101601f191682019092526116f991810190611f35565b60015b61172457604051634c9c8ce360e01b81526001600160a01b03831660048201526024016105b4565b600080516020611f7e833981519152811461175557604051632a87526960e21b8152600481018290526024016105b4565b6115dc8383611914565b306001600160a01b037f000000000000000000000000000000000000000000000000000000000000000016146107205760405163703e46dd60e11b815260040160405180910390fd5b336117b1610ad1565b6001600160a01b0316146107205760405163118cdaa760e01b81523360048201526024016105b4565b7f9016d09d72d40fdae2fd8ceac6b6234c7706214fd39c1cd1e609a0528c19930080546001600160a01b031981166001600160a01b03848116918217845560405192169182907f8be0079c531659141344cd1fd0a4f28419497f9722a3daafe3b4186f6b6457e090600090a3505050565b6000807ff0c57e16840df040f15088dc2f81fe391c3923bec73e23a9662efc9c229c6a00610731565b61187c61196a565b6109bd8161198f565b61188d61196a565b610720611997565b61072061196a565b600080602060008451602086016000885af1806118c0576040513d6000823e3d81fd5b50506000513d915081156118d85780600114156118e5565b6001600160a01b0384163b155b1561190e57604051635274afe760e01b81526001600160a01b03851660048201526024016105b4565b50505050565b61191d8261199f565b6040516001600160a01b038316907fbc7cd75a20ee27fd9adebab32041f755214dbc6bffa90cc0225b39da2e5c2d3b90600090a2805115611962576115dc8282611a04565b610752611a7a565b611972611a99565b61072057604051631afcd79f60e31b815260040160405180910390fd5b61151f61196a565b6115e161196a565b806001600160a01b03163b6000036119d557604051634c9c8ce360e01b81526001600160a01b03821660048201526024016105b4565b600080516020611f7e83398151915280546001600160a01b0319166001600160a01b0392909216919091179055565b6060600080846001600160a01b031684604051611a219190611f61565b600060405180830381855af49150503d8060008114611a5c576040519150601f19603f3d011682016040523d82523d6000602084013e611a61565b606091505b5091509150611a71858383611ab3565b95945050505050565b34156107205760405163b398979f60e01b815260040160405180910390fd5b6000611aa361184b565b54600160401b900460ff16919050565b606082611ac857611ac382611b12565b611b0b565b8151158015611adf57506001600160a01b0384163b155b15611b0857604051639996b31560e01b81526001600160a01b03851660048201526024016105b4565b50805b9392505050565b805115611b2157805160208201fd5b60405163d6bda27560e01b815260040160405180910390fd5b60405180610100016040528060006001600160a01b0316815260200160006001600160a01b031681526020016000815260200160008152602001600081526020016000815260200160006002811115611b9557611b95611cb7565b8152600060209091015290565b600060208284031215611bb457600080fd5b5035919050565b80356001600160a01b0381168114611bd257600080fd5b919050565b634e487b7160e01b600052604160045260246000fd5b60008060408385031215611c0057600080fd5b611c0983611bbb565b9150602083013567ffffffffffffffff811115611c2557600080fd5b8301601f81018513611c3657600080fd5b803567ffffffffffffffff811115611c5057611c50611bd7565b604051601f8201601f19908116603f0116810167ffffffffffffffff81118282101715611c7f57611c7f611bd7565b604052818152828201602001871015611c9757600080fd5b816020840160208301376000602083830101528093505050509250929050565b634e487b7160e01b600052602160045260246000fd5b60038110611ceb57634e487b7160e01b600052602160045260246000fd5b9052565b81516001600160a01b0390811682526020808401519091169082015260408083015190820152606080830151908201526080808301519082015260a0828101519082015260c080830151610100830191611d4b90840182611ccd565b5060e0928301511515919092015290565b60005b83811015611d77578181015183820152602001611d5f565b50506000910152565b6020815260008251806020840152611d9f816040850160208701611d5c565b601f01601f19169190910160400192915050565b602080825282518282018190526000918401906040840190835b81811015611deb578351835260209384019390920191600101611dcd565b509095945050505050565b60008060008060808587031215611e0c57600080fd5b611e1585611bbb565b9350611e2360208601611bbb565b93969395505050506040820135916060013590565b600060208284031215611e4a57600080fd5b611b0b82611bbb565b6001600160a01b0389811682528816602082015260408101879052606081018690526080810185905260a081018490526101008101611e9560c0830185611ccd565b82151560e08301529998505050505050505050565b60208082526010908201526f5661756c74206e6f742061637469766560801b604082015260600190565b634e487b7160e01b600052601160045260246000fd5b600082611f0757634e487b7160e01b600052601260045260246000fd5b500490565b8181038181111561073157610731611ed4565b634e487b7160e01b600052603260045260246000fd5b600060208284031215611f4757600080fd5b5051919050565b8082018082111561073157610731611ed4565b60008251611f73818460208701611d5c565b919091019291505056fe360894a13ba1a3210667c828492db98dca3e2076cc3735a920a3ca505d382bbc9b779b17422d0df92223018b32b4d1fa46e071723d6817e2486d003becc55f00a2646970667358221220a7f9c3c67184a550bf3ea38eb1e01ebaf5c098693347452fd6990070acd85e5b64736f6c634300081c0033",
  "linkReferences": {},
  "deployedLinkReferences": {}
}