{
  "_format": "hh-sol-artifact-1",
  "contractName": "TokenRegistry",
  "sourceName": "contracts/TokenRegistry.sol",
  "abi": [
    {
      "inputs": [],
      "stateMutability": "nonpayable",
      "type": "constructor"
    },
    {
      "inputs": [
        {
          "internalType": "address",
          "name": "target",
          "type": "address"
        }
      ],
      "name": "AddressEmptyCode",
      "type": "error"
    },
    {
      "inputs": [
        {
          "internalType": "address",
          "name": "implementation",
          "type": "address"
        }
      ],
      "name": "ERC1967InvalidImplementation",
      "type": "error"
    },
    {
      "inputs": [],
      "name": "ERC1967NonPayable",
      "type": "error"
    },
    {
      "inputs": [],
      "name": "FailedCall",
      "type": "error"
    },
    {
      "inputs": [],
      "name": "InvalidInitialization",
      "type": "error"
    },
    {
      "inputs": [],
      "name": "NotInitializing",
      "type": "error"
    },
    {
      "inputs": [
        {
          "internalType": "address",
          "name": "owner",
          "type": "address"
        }
      ],
      "name": "OwnableInvalidOwner",
      "type": "error"
    },
    {
      "inputs": [
        {
          "internalType": "address",
          "name": "account",
          "type": "address"
        }
      ],
      "name": "OwnableUnauthorizedAccount",
      "type": "error"
    },
    {
      "inputs": [],
      "name": "ReentrancyGuardReentrantCall",
      "type": "error"
    },
    {
      "inputs": [],
      "name": "UUPSUnauthorizedCallContext",
      "type": "error"
    },
    {
      "inputs": [
        {
          "internalType": "bytes32",
          "name": "slot",
          "type": "bytes32"
        }
      ],
      "name": "UUPSUnsupportedProxiableUUID",
      "type": "error"
    },
    {
      "anonymous": false,
      "inputs": [
        {
          "indexed": false,
          "internalType": "uint64",
          "name": "version",
          "type": "uint64"
        }
      ],
      "name": "Initialized",
      "type": "event"
    },
    {
      "anonymous": false,
      "inputs": [
        {
          "indexed": true,
          "internalType": "address",
          "name": "previousOwner",
          "type": "address"
        },
        {
          "indexed": true,
          "internalType": "address",
          "name": "newOwner",
          "type": "address"
        }
      ],
      "name": "OwnershipTransferred",
      "type": "event"
    },
    {
      "anonymous": false,
      "inputs": [
        {
          "indexed": true,
          "internalType": "address",
          "name": "token",
          "type": "address"
        },
        {
          "indexed": false,
          "internalType": "string",
          "name": "symbol",
          "type": "string"
        },
        {
          "indexed": false,
          "internalType": "string",
          "name": "country",
          "type": "string"
        },
        {
          "indexed": false,
          "internalType": "uint256",
          "name": "minAmount",
          "type": "uint256"
        }
      ],
      "name": "TokenAdded",
      "type": "event"
    },
    {
      "anonymous": false,
      "inputs": [
        {
          "indexed": true,
          "internalType": "address",
          "name": "token",
          "type": "address"
        },
        {
          "indexed": false,
          "internalType": "uint256",
          "name": "oldMinAmount",
          "type": "uint256"
        },
        {
          "indexed": false,
          "internalType": "uint256",
          "name": "newMinAmount",
          "type": "uint256"
        }
      ],
      "name": "TokenLimitsUpdated",
      "type": "event"
    },
    {
      "anonymous": false,
      "inputs": [
        {
          "indexed": true,
          "internalType": "address",
          "name": "owner",
          "type": "address"
        },
        {
          "indexed": false,
          "internalType": "uint256",
          "name": "tokenCount",
          "type": "uint256"
        }
      ],
      "name": "TokenRegistryInitialized",
      "type": "event"
    },
    {
      "anonymous": false,
      "inputs": [
        {
          "indexed": true,
          "internalType": "address",
          "name": "implementation",
          "type": "address"
        }
      ],
      "name": "TokenRegistryUpgraded",
      "type": "event"
    },
    {
      "anonymous": false,
      "inputs": [
        {
          "indexed": true,
          "internalType": "address",
          "name": "token",
          "type": "address"
        },
        {
          "indexed": false,
          "internalType": "string",
          "name": "symbol",
          "type": "string"
        },
        {
          "indexed": false,
          "internalType": "string",
          "name": "country",
          "type": "string"
        }
      ],
      "name": "TokenRemoved",
      "type": "event"
    },
    {
      "anonymous": false,
      "inputs": [
        {
          "indexed": true,
          "internalType": "address",
          "name": "implementation",
          "type": "address"
        }
      ],
      "name": "Upgraded",
      "type": "event"
    },
    {
      "inputs": [],
      "name": "UPGRADE_INTERFACE_VERSION",
      "outputs": [
        {
          "internalType": "string",
          "name": "",
          "type": "string"
        }
      ],
      "stateMutability": "view",
      "type": "function"
    },
    {
      "inputs": [
        {
          "internalType": "address",
          "name": "token",
          "type": "address"
        },
        {
          "internalType": "string",
          "name": "symbol",
          "type": "string"
        },
        {
          "internalType": "string",
          "name": "name",
          "type": "string"
        },
        {
          "internalType": "string",
          "name": "country",
          "type": "string"
        },
        {
          "internalType": "uint256",
          "name": "minAmount",
          "type": "uint256"
        }
      ],
      "name": "addToken",
      "outputs": [],
      "stateMutability": "nonpayable",
      "type": "function"
    },
    {
      "inputs": [],
      "name": "getSupportedTokenCount",
      "outputs": [
        {
          "internalType": "uint256",
          "name": "",
          "type": "uint256"
        }
      ],
      "stateMutability": "view",
      "type": "function"
    },
    {
      "inputs": [],
      "name": "getSupportedTokens",
      "outputs": [
        {
          "internalType": "address[]",
          "name": "",
          "type": "address[]"
        }
      ],
      "stateMutability": "view",
      "type": "function"
    },
    {
      "inputs": [
        {
          "internalType": "address",
          "name": "token",
          "type": "address"
        }
      ],
      "name": "getTokenInfo",
      "outputs": [
        {
          "components": [
            {
              "internalType": "string",
              "name": "symbol",
              "type": "string"
            },
            {
              "internalType": "string",
              "name": "name",
              "type": "string"
            },
            {
              "internalType": "string",
              "name": "country",
              "type": "string"
            },
            {
              "internalType": "bool",
              "name": "isSupported",
              "type": "bool"
            },
            {
              "internalType": "uint256",
              "name": "minAmount",
              "type": "uint256"
            }
          ],
          "internalType": "struct TokenRegistry.TokenInfo",
          "name": "",
          "type": "tuple"
        }
      ],
      "stateMutability": "view",
      "type": "function"
    },
    {
      "inputs": [
        {
          "internalType": "address",
          "name": "_owner",
          "type": "address"
        }
      ],
      "name": "initialize",
      "outputs": [],
      "stateMutability": "nonpayable",
      "type": "function"
    },
    {
      "inputs": [
        {
          "internalType": "address",
          "name": "token",
          "type": "address"
        }
      ],
      "name": "isTokenSupported",
      "outputs": [
        {
          "internalType": "bool",
          "name": "",
          "type": "bool"
        }
      ],
      "stateMutability": "view",
      "type": "function"
    },
    {
      "inputs": [],
      "name": "owner",
      "outputs": [
        {
          "internalType": "address",
          "name": "",
          "type": "address"
        }
      ],
      "stateMutability": "view",
      "type": "function"
    },
    {
      "inputs": [],
      "name": "proxiableUUID",
      "outputs": [
        {
          "internalType": "bytes32",
          "name": "",
          "type": "bytes32"
        }
      ],
      "stateMutability": "view",
      "type": "function"
    },
    {
      "inputs": [
        {
          "internalType": "address",
          "name": "token",
          "type": "address"
        }
      ],
      "name": "removeToken",
      "outputs": [],
      "stateMutability": "nonpayable",
      "type": "function"
    },
    {
      "inputs": [],
      "name": "renounceOwnership",
      "outputs": [],
      "stateMutability": "nonpayable",
      "type": "function"
    },
    {
      "inputs": [
        {
          "internalType": "uint256",
          "name": "",
          "type": "uint256"
        }
      ],
      "name": "supportedTokens",
      "outputs": [
        {
          "internalType": "address",
          "name": "",
          "type": "address"
        }
      ],
      "stateMutability": "view",
      "type": "function"
    },
    {
      "inputs": [
        {
          "internalType": "address",
          "name": "",
          "type": "address"
        }
      ],
      "name": "tokenIndex",
      "outputs": [
        {
          "internalType": "uint256",
          "name": "",
          "type": "uint256"
        }
      ],
      "stateMutability": "view",
      "type": "function"
    },
    {
      "inputs": [
        {
          "internalType": "address",
          "name": "",
          "type": "address"
        }
      ],
      "name": "tokens",
      "outputs": [
        {
          "internalType": "string",
          "name": "symbol",
          "type": "string"
        },
        {
          "internalType": "string",
          "name": "name",
          "type": "string"
        },
        {
          "internalType": "string",
          "name": "country",
          "type": "string"
        },
        {
          "internalType": "bool",
          "name": "isSupported",
          "type": "bool"
        },
        {
          "internalType": "uint256",
          "name": "minAmount",
          "type": "uint256"
        }
      ],
      "stateMutability": "view",
      "type": "function"
    },
    {
      "inputs": [
        {
          "internalType": "address",
          "name": "newOwner",
          "type": "address"
        }
      ],
      "name": "transferOwnership",
      "outputs": [],
      "stateMutability": "nonpayable",
      "type": "function"
    },
    {
      "inputs": [
        {
          "internalType": "address",
          "name": "token",
          "type": "address"
        },
        {
          "internalType": "uint256",
          "name": "minAmount",
          "type": "uint256"
        }
      ],
      "name": "updateTokenMinAmount",
      "outputs": [],
      "stateMutability": "nonpayable",
      "type": "function"
    },
    {
      "inputs": [
        {
          "internalType": "address",
          "name": "newImplementation",
          "type": "address"
        },
        {
          "internalType": "bytes",
          "name": "data",
          "type": "bytes"
        }
      ],
      "name": "upgradeToAndCall",
      "outputs": [],
      "stateMutability": "payable",
      "type": "function"
    },
    {
      "inputs": [
        {
          "internalType": "address",
          "name": "token",
          "type": "address"
        },
        {
          "internalType": "uint256",
          "name": "amount",
          "type": "uint256"
        }
      ],
      "name": "validateAmount",
      "outputs": [
        {
          "internalType": "bool",
          "name": "",
          "type": "bool"
        }
      ],
      "stateMutability": "view",
      "type": "function"
    }
  ],
  "bytecode": "0x60a06040523060805234801561001457600080fd5b5061001d610022565b6100d4565b7ff0c57e16840df040f15088dc2f81fe391c3923bec73e23a9662efc9c229c6a00805468010000000000000000900460ff16156100725760405163f92ee8a960e01b815260040160405180910390fd5b80546001600160401b03908116146100d15780546001600160401b0319166001600160401b0390811782556040519081527fc7f505b2f371ae2175ee4913f4499e1f2633a7b5936321eed1cdaeb6115181d29060200160405180910390a15b50565b6080516120556100fd60003960008181610fa301528181610fcc015261114901526120556000f3fe6080604052600436106101095760003560e01c80638da5cb5b11610095578063ce67be2611610064578063ce67be2614610339578063d3c7c2c71461034e578063e486033914610370578063f2fde38b146103a1578063faa9216e146103c157600080fd5b80638da5cb5b1461026a578063ad3cb1cc146102bb578063c4d66de8146102f9578063c62556261461031957600080fd5b80634f1ef286116100dc5780634f1ef286146101d157806352d1902d146101e45780635fa7b584146101f9578063715018a61461021957806375151b631461022e57600080fd5b80631f69565f1461010e578063427f91a614610144578063459bfbc71461017f57806349ae11e8146101af575b600080fd5b34801561011a57600080fd5b5061012e6101293660046119cb565b6103e1565b60405161013b9190611a36565b60405180910390f35b34801561015057600080fd5b5061017161015f3660046119cb565b60026020526000908152604090205481565b60405190815260200161013b565b34801561018b57600080fd5b5061019f61019a366004611ab0565b61060d565b604051901515815260200161013b565b3480156101bb57600080fd5b506101cf6101ca366004611ab0565b610824565b005b6101cf6101df366004611b6a565b61093c565b3480156101f057600080fd5b5061017161095b565b34801561020557600080fd5b506101cf6102143660046119cb565b610978565b34801561022557600080fd5b506101cf610b24565b34801561023a57600080fd5b5061019f6102493660046119cb565b6001600160a01b031660009081526020819052604090206003015460ff1690565b34801561027657600080fd5b507f9016d09d72d40fdae2fd8ceac6b6234c7706214fd39c1cd1e609a0528c199300546001600160a01b03165b6040516001600160a01b03909116815260200161013b565b3480156102c757600080fd5b506102ec604051806040016040528060058152602001640352e302e360dc1b81525081565b60405161013b9190611bcc565b34801561030557600080fd5b506101cf6103143660046119cb565b610b38565b34801561032557600080fd5b506102a3610334366004611bdf565b610c8d565b34801561034557600080fd5b50600154610171565b34801561035a57600080fd5b50610363610cb7565b60405161013b9190611bf8565b34801561037c57600080fd5b5061039061038b3660046119cb565b610d19565b60405161013b959493929190611c44565b3480156103ad57600080fd5b506101cf6103bc3660046119cb565b610ee3565b3480156103cd57600080fd5b506101cf6103dc366004611cb2565b610f21565b6104156040518060a00160405280606081526020016060815260200160608152602001600015158152602001600081525090565b6001600160a01b03821660009081526020819052604090819020815160a0810190925280548290829061044790611d5f565b80601f016020809104026020016040519081016040528092919081815260200182805461047390611d5f565b80156104c05780601f10610495576101008083540402835291602001916104c0565b820191906000526020600020905b8154815290600101906020018083116104a357829003601f168201915b505050505081526020016001820180546104d990611d5f565b80601f016020809104026020016040519081016040528092919081815260200182805461050590611d5f565b80156105525780601f1061052757610100808354040283529160200191610552565b820191906000526020600020905b81548152906001019060200180831161053557829003601f168201915b5050505050815260200160028201805461056b90611d5f565b80601f016020809104026020016040519081016040528092919081815260200182805461059790611d5f565b80156105e45780601f106105b9576101008083540402835291602001916105e4565b820191906000526020600020905b8154815290600101906020018083116105c757829003601f168201915b5050509183525050600382015460ff161515602082015260049091015460409091015292915050565b6001600160a01b038216600090815260208190526040808220815160a081019092528054839291908290829061064290611d5f565b80601f016020809104026020016040519081016040528092919081815260200182805461066e90611d5f565b80156106bb5780601f10610690576101008083540402835291602001916106bb565b820191906000526020600020905b81548152906001019060200180831161069e57829003601f168201915b505050505081526020016001820180546106d490611d5f565b80601f016020809104026020016040519081016040528092919081815260200182805461070090611d5f565b801561074d5780601f106107225761010080835404028352916020019161074d565b820191906000526020600020905b81548152906001019060200180831161073057829003601f168201915b5050505050815260200160028201805461076690611d5f565b80601f016020809104026020016040519081016040528092919081815260200182805461079290611d5f565b80156107df5780601f106107b4576101008083540402835291602001916107df565b820191906000526020600020905b8154815290600101906020018083116107c257829003601f168201915b5050509183525050600382015460ff16151560208201526004909101546040909101526060810151909150801561081a575080608001518310155b9150505b92915050565b61082c610f3d565b6001600160a01b03821660009081526020819052604090206003015460ff166108925760405162461bcd60e51b8152602060048201526013602482015272151bdad95b881b9bdd081cdd5c1c1bdc9d1959606a1b60448201526064015b60405180910390fd5b600081116108db5760405162461bcd60e51b8152602060048201526016602482015275125b9d985b1a59081b5a5b9a5b5d5b48185b5bdd5b9d60521b6044820152606401610889565b6001600160a01b03821660008181526020818152604091829020600401805490859055825181815291820185905292917f5377869d4c153a4d676bf682a833d324cd5257f2d793472b355079b11544535291015b60405180910390a2505050565b610944610f98565b61094d8261103d565b610957828261107c565b5050565b600061096561113e565b5060008051602061200083398151915290565b610980610f3d565b6001600160a01b03811660009081526020819052604090206003015460ff166109e15760405162461bcd60e51b8152602060048201526013602482015272151bdad95b881b9bdd081cdd5c1c1bdc9d1959606a1b6044820152606401610889565b6001600160a01b038116600090815260208181526040808320600301805460ff19169055600290915281205460018054919291610a1f908290611d99565b81548110610a2f57610a2f611dba565b600091825260209091200154600180546001600160a01b039092169250829184908110610a5e57610a5e611dba565b600091825260208083209190910180546001600160a01b0319166001600160a01b0394851617905591831681526002909152604090208290556001805480610aa857610aa8611dd0565b60008281526020808220830160001990810180546001600160a01b03191690559092019092556001600160a01b038516808352600280835260408085208590559284905292829020915190927fba11981cb2ad3a6fea03eeb7ee1448ff61fc1fba3b4ac818db776e1748ff8ecc9261092f929091820190611e69565b610b2c610f3d565b610b366000611187565b565b6000610b426111f8565b805490915060ff600160401b820416159067ffffffffffffffff16600081158015610b6a5750825b905060008267ffffffffffffffff166001148015610b875750303b155b905081158015610b95575080155b15610bb35760405163f92ee8a960e01b815260040160405180910390fd5b845467ffffffffffffffff191660011785558315610bdd57845460ff60401b1916600160401b1785555b610be686611221565b610bee611232565b610bf6611242565b610bfe61124a565b6001546040519081526001600160a01b038716907fa42062647c98689df8877d7415f779da6ab3257f88d4b32d7f7735507d194b819060200160405180910390a28315610c8557845460ff60401b19168555604051600181527fc7f505b2f371ae2175ee4913f4499e1f2633a7b5936321eed1cdaeb6115181d29060200160405180910390a15b505050505050565b60018181548110610c9d57600080fd5b6000918252602090912001546001600160a01b0316905081565b60606001805480602002602001604051908101604052809291908181526020018280548015610d0f57602002820191906000526020600020905b81546001600160a01b03168152600190910190602001808311610cf1575b5050505050905090565b600060208190529081526040902080548190610d3490611d5f565b80601f0160208091040260200160405190810160405280929190818152602001828054610d6090611d5f565b8015610dad5780601f10610d8257610100808354040283529160200191610dad565b820191906000526020600020905b815481529060010190602001808311610d9057829003601f168201915b505050505090806001018054610dc290611d5f565b80601f0160208091040260200160405190810160405280929190818152602001828054610dee90611d5f565b8015610e3b5780601f10610e1057610100808354040283529160200191610e3b565b820191906000526020600020905b815481529060010190602001808311610e1e57829003601f168201915b505050505090806002018054610e5090611d5f565b80601f0160208091040260200160405190810160405280929190818152602001828054610e7c90611d5f565b8015610ec95780601f10610e9e57610100808354040283529160200191610ec9565b820191906000526020600020905b815481529060010190602001808311610eac57829003601f168201915b505050506003830154600490930154919260ff1691905085565b610eeb610f3d565b6001600160a01b038116610f1557604051631e4fbdf760e01b815260006004820152602401610889565b610f1e81611187565b50565b610f29610f3d565b610f36858585858561150e565b5050505050565b33610f6f7f9016d09d72d40fdae2fd8ceac6b6234c7706214fd39c1cd1e609a0528c199300546001600160a01b031690565b6001600160a01b031614610b365760405163118cdaa760e01b8152336004820152602401610889565b306001600160a01b037f000000000000000000000000000000000000000000000000000000000000000016148061101f57507f00000000000000000000000000000000000000000000000000000000000000006001600160a01b0316611013600080516020612000833981519152546001600160a01b031690565b6001600160a01b031614155b15610b365760405163703e46dd60e11b815260040160405180910390fd5b611045610f3d565b6040516001600160a01b038216907feb6effbbf7f2f98de588b0103a9a165ea4ba49c2935ca53336ea02c2422b7e7b90600090a250565b816001600160a01b03166352d1902d6040518163ffffffff1660e01b8152600401602060405180830381865afa9250505080156110d6575060408051601f3d908101601f191682019092526110d391810190611e8e565b60015b6110fe57604051634c9c8ce360e01b81526001600160a01b0383166004820152602401610889565b600080516020612000833981519152811461112f57604051632a87526960e21b815260048101829052602401610889565b6111398383611763565b505050565b306001600160a01b037f00000000000000000000000000000000000000000000000000000000000000001614610b365760405163703e46dd60e11b815260040160405180910390fd5b7f9016d09d72d40fdae2fd8ceac6b6234c7706214fd39c1cd1e609a0528c19930080546001600160a01b031981166001600160a01b03848116918217845560405192169182907f8be0079c531659141344cd1fd0a4f28419497f9722a3daafe3b4186f6b6457e090600090a3505050565b6000807ff0c57e16840df040f15088dc2f81fe391c3923bec73e23a9662efc9c229c6a0061081e565b6112296117b9565b610f1e816117de565b61123a6117b9565b610b366117e6565b610b366117b9565b6112d5734a5b03b8b16122d330306c65e4ca4bc5dd6511d06040518060400160405280600481526020016331a723a760e11b8152506040518060400160405280600e81526020016d4e6967657269616e204e6169726160901b815250604051806040016040528060078152602001664e69676572696160c81b815250681b1ae4d6e2ef50000061150e565b61135c73295b66be7714458af45e6a6ea142a5358a6ca375604051806040016040528060048152602001636347485360e01b8152506040518060400160405280600d81526020016c4768616e6169616e204365646960981b815250604051806040016040528060058152602001644768616e6160d81b815250674563918244f4000061150e565b6113e6731e0433c1769271eccf4cff9fddd515eefe6cdf9260405180604001604052806004815260200163634b455360e01b8152506040518060400160405280600f81526020016e4b656e79616e205368696c6c696e6760881b815250604051806040016040528060058152602001644b656e796160d81b815250681b1ae4d6e2ef50000061150e565b61147a731e5b44015ff90610b54000daad31c89b3284df4d6040518060400160405280600481526020016331ad20a960e11b8152506040518060400160405280601281526020017114dbdd5d1a0810599c9a58d85b8814985b9960721b8152506040518060400160405280600c81526020016b536f7574682041667269636160a01b8152506802b5e3af16b188000061150e565b610b3673b0fa15e002516d0301884059c0aac0f0c72b019d6040518060400160405280600481526020016331ac27a360e11b8152506040518060400160405280601681526020017557657374204166726963616e20434641204672616e6360501b8152506040518060400160405280600b81526020016a576573742041667269636160a81b81525069010f0cf064dd592000005b6001600160a01b03851661155c5760405162461bcd60e51b8152602060048201526015602482015274496e76616c696420746f6b656e206164647265737360581b6044820152606401610889565b6001600160a01b03851660009081526020819052604090206003015460ff16156115c85760405162461bcd60e51b815260206004820152601760248201527f546f6b656e20616c726561647920737570706f727465640000000000000000006044820152606401610889565b600081116116115760405162461bcd60e51b8152602060048201526016602482015275125b9d985b1a59081b5a5b9a5b5d5b48185b5bdd5b9d60521b6044820152606401610889565b6040805160a081018252858152602080820186905281830185905260016060830152608082018490526001600160a01b038816600090815290819052919091208151819061165f9082611eee565b50602082015160018201906116749082611eee565b50604082015160028201906116899082611eee565b50606082015160038201805460ff191691151591909117905560809091015160049091015560018054808201825560008290527fb10e2d527612073b26eecdfd717e6a320cf44b4afac2b0732d9fcbe2b7fa0cf60180546001600160a01b0319166001600160a01b03881617905580546117039190611d99565b6001600160a01b038616600081815260026020526040908190209290925590517ff711540f34d729d036431d051198fe18d9fd348ad9aa68dfc8b27d5c5f2771079061175490879086908690611fad565b60405180910390a25050505050565b61176c82611814565b6040516001600160a01b038316907fbc7cd75a20ee27fd9adebab32041f755214dbc6bffa90cc0225b39da2e5c2d3b90600090a28051156117b1576111398282611879565b6109576118ef565b6117c161190e565b610b3657604051631afcd79f60e31b815260040160405180910390fd5b610eeb6117b9565b6117ee6117b9565b60017f9b779b17422d0df92223018b32b4d1fa46e071723d6817e2486d003becc55f0055565b806001600160a01b03163b60000361184a57604051634c9c8ce360e01b81526001600160a01b0382166004820152602401610889565b60008051602061200083398151915280546001600160a01b0319166001600160a01b0392909216919091179055565b6060600080846001600160a01b0316846040516118969190611fe3565b600060405180830381855af49150503d80600081146118d1576040519150601f19603f3d011682016040523d82523d6000602084013e6118d6565b606091505b50915091506118e6858383611928565b95945050505050565b3415610b365760405163b398979f60e01b815260040160405180910390fd5b60006119186111f8565b54600160401b900460ff16919050565b60608261193d5761193882611987565b611980565b815115801561195457506001600160a01b0384163b155b1561197d57604051639996b31560e01b81526001600160a01b0385166004820152602401610889565b50805b9392505050565b80511561199657805160208201fd5b60405163d6bda27560e01b815260040160405180910390fd5b80356001600160a01b03811681146119c657600080fd5b919050565b6000602082840312156119dd57600080fd5b611980826119af565b60005b83811015611a015781810151838201526020016119e9565b50506000910152565b60008151808452611a228160208601602086016119e6565b601f01601f19169290920160200192915050565b602081526000825160a06020840152611a5260c0840182611a0a565b90506020840151601f19848303016040850152611a6f8282611a0a565b9150506040840151601f19848303016060850152611a8d8282611a0a565b915050606084015115156080840152608084015160a08401528091505092915050565b60008060408385031215611ac357600080fd5b611acc836119af565b946020939093013593505050565b634e487b7160e01b600052604160045260246000fd5b60008067ffffffffffffffff841115611b0b57611b0b611ada565b50604051601f19601f85018116603f0116810181811067ffffffffffffffff82111715611b3a57611b3a611ada565b604052838152905080828401851015611b5257600080fd5b83836020830137600060208583010152509392505050565b60008060408385031215611b7d57600080fd5b611b86836119af565b9150602083013567ffffffffffffffff811115611ba257600080fd5b8301601f81018513611bb357600080fd5b611bc285823560208401611af0565b9150509250929050565b6020815260006119806020830184611a0a565b600060208284031215611bf157600080fd5b5035919050565b602080825282518282018190526000918401906040840190835b81811015611c395783516001600160a01b0316835260209384019390920191600101611c12565b509095945050505050565b60a081526000611c5760a0830188611a0a565b8281036020840152611c698188611a0a565b90508281036040840152611c7d8187611a0a565b94151560608401525050608001529392505050565b600082601f830112611ca357600080fd5b61198083833560208501611af0565b600080600080600060a08688031215611cca57600080fd5b611cd3866119af565b9450602086013567ffffffffffffffff811115611cef57600080fd5b611cfb88828901611c92565b945050604086013567ffffffffffffffff811115611d1857600080fd5b611d2488828901611c92565b935050606086013567ffffffffffffffff811115611d4157600080fd5b611d4d88828901611c92565b95989497509295608001359392505050565b600181811c90821680611d7357607f821691505b602082108103611d9357634e487b7160e01b600052602260045260246000fd5b50919050565b8181038181111561081e57634e487b7160e01b600052601160045260246000fd5b634e487b7160e01b600052603260045260246000fd5b634e487b7160e01b600052603160045260246000fd5b60008154611df381611d5f565b808552600182168015611e0d5760018114611e2957611e60565b60ff1983166020870152602082151560051b8701019350611e60565b84600052602060002060005b83811015611e575781546020828a010152600182019150602081019050611e35565b87016020019450505b50505092915050565b604081526000611e7c6040830185611de6565b82810360208401526118e68185611de6565b600060208284031215611ea057600080fd5b5051919050565b601f82111561113957806000526020600020601f840160051c81016020851015611ece5750805b601f840160051c820191505b81811015610f365760008155600101611eda565b815167ffffffffffffffff811115611f0857611f08611ada565b611f1c81611f168454611d5f565b84611ea7565b6020601f821160018114611f505760008315611f385750848201515b600019600385901b1c1916600184901b178455610f36565b600084815260208120601f198516915b82811015611f805787850151825560209485019460019092019101611f60565b5084821015611f9e5786840151600019600387901b60f8161c191681555b50505050600190811b01905550565b606081526000611fc06060830186611a0a565b8281036020840152611fd28186611a0a565b915050826040830152949350505050565b60008251611ff58184602087016119e6565b919091019291505056fe360894a13ba1a3210667c828492db98dca3e2076cc3735a920a3ca505d382bbca2646970667358221220b6821cd0e6825862aa491c8093664676f8af9a09f36a6c17dab4aa23c4545aee64736f6c634300081c0033",
  "linkReferences": {},
  "deployedLinkReferences": {}
}