{
  "_format": "hh-sol-artifact-1",
  "contractName": "VaultFactory",
  "sourceName": "contracts/VaultFactory.sol",
  "abi": [
    {
      "inputs": [],
      "stateMutability": "nonpayable",
      "type": "constructor"
    },
    {
      "inputs": [
        {
          "internalType": "address",
          "name": "target",
          "type": "address"
        }
      ],
      "name": "AddressEmptyCode",
      "type": "error"
    },
    {
      "inputs": [
        {
          "internalType": "address",
          "name": "implementation",
          "type": "address"
        }
      ],
      "name": "ERC1967InvalidImplementation",
      "type": "error"
    },
    {
      "inputs": [],
      "name": "ERC1967NonPayable",
      "type": "error"
    },
    {
      "inputs": [],
      "name": "FailedCall",
      "type": "error"
    },
    {
      "inputs": [],
      "name": "InvalidInitialization",
      "type": "error"
    },
    {
      "inputs": [],
      "name": "NotInitializing",
      "type": "error"
    },
    {
      "inputs": [
        {
          "internalType": "address",
          "name": "owner",
          "type": "address"
        }
      ],
      "name": "OwnableInvalidOwner",
      "type": "error"
    },
    {
      "inputs": [
        {
          "internalType": "address",
          "name": "account",
          "type": "address"
        }
      ],
      "name": "OwnableUnauthorizedAccount",
      "type": "error"
    },
    {
      "inputs": [],
      "name": "ReentrancyGuardReentrantCall",
      "type": "error"
    },
    {
      "inputs": [
        {
          "internalType": "address",
          "name": "token",
          "type": "address"
        }
      ],
      "name": "SafeERC20FailedOperation",
      "type": "error"
    },
    {
      "inputs": [],
      "name": "UUPSUnauthorizedCallContext",
      "type": "error"
    },
    {
      "inputs": [
        {
          "internalType": "bytes32",
          "name": "slot",
          "type": "bytes32"
        }
      ],
      "name": "UUPSUnsupportedProxiableUUID",
      "type": "error"
    },
    {
      "anonymous": false,
      "inputs": [
        {
          "indexed": true,
          "internalType": "address",
          "name": "token",
          "type": "address"
        },
        {
          "indexed": false,
          "internalType": "uint256",
          "name": "amount",
          "type": "uint256"
        },
        {
          "indexed": true,
          "internalType": "address",
          "name": "recipient",
          "type": "address"
        },
        {
          "indexed": true,
          "internalType": "address",
          "name": "recoverer",
          "type": "address"
        }
      ],
      "name": "EmergencyRecovery",
      "type": "event"
    },
    {
      "anonymous": false,
      "inputs": [
        {
          "indexed": false,
          "internalType": "uint256",
          "name": "totalVaults",
          "type": "uint256"
        },
        {
          "indexed": false,
          "internalType": "uint256",
          "name": "totalUsers",
          "type": "uint256"
        },
        {
          "indexed": false,
          "internalType": "uint256",
          "name": "totalAmountLocked",
          "type": "uint256"
        }
      ],
      "name": "GlobalAnalyticsUpdated",
      "type": "event"
    },
    {
      "anonymous": false,
      "inputs": [
        {
          "indexed": false,
          "internalType": "uint64",
          "name": "version",
          "type": "uint64"
        }
      ],
      "name": "Initialized",
      "type": "event"
    },
    {
      "anonymous": false,
      "inputs": [
        {
          "indexed": true,
          "internalType": "address",
          "name": "previousOwner",
          "type": "address"
        },
        {
          "indexed": true,
          "internalType": "address",
          "name": "newOwner",
          "type": "address"
        }
      ],
      "name": "OwnershipTransferred",
      "type": "event"
    },
    {
      "anonymous": false,
      "inputs": [
        {
          "indexed": true,
          "internalType": "address",
          "name": "oldManager",
          "type": "address"
        },
        {
          "indexed": true,
          "internalType": "address",
          "name": "newManager",
          "type": "address"
        },
        {
          "indexed": true,
          "internalType": "address",
          "name": "updater",
          "type": "address"
        }
      ],
      "name": "PenaltyManagerUpdated",
      "type": "event"
    },
    {
      "anonymous": false,
      "inputs": [
        {
          "indexed": true,
          "internalType": "address",
          "name": "oldRegistry",
          "type": "address"
        },
        {
          "indexed": true,
          "internalType": "address",
          "name": "newRegistry",
          "type": "address"
        },
        {
          "indexed": true,
          "internalType": "address",
          "name": "updater",
          "type": "address"
        }
      ],
      "name": "TokenRegistryUpdated",
      "type": "event"
    },
    {
      "anonymous": false,
      "inputs": [
        {
          "indexed": true,
          "internalType": "address",
          "name": "implementation",
          "type": "address"
        }
      ],
      "name": "Upgraded",
      "type": "event"
    },
    {
      "anonymous": false,
      "inputs": [
        {
          "indexed": true,
          "internalType": "address",
          "name": "user",
          "type": "address"
        },
        {
          "indexed": false,
          "internalType": "uint256",
          "name": "totalSaved",
          "type": "uint256"
        },
        {
          "indexed": false,
          "internalType": "uint256",
          "name": "currentLocked",
          "type": "uint256"
        },
        {
          "indexed": false,
          "internalType": "uint256",
          "name": "completedVaults",
          "type": "uint256"
        }
      ],
      "name": "UserAnalyticsUpdated",
      "type": "event"
    },
    {
      "anonymous": false,
      "inputs": [
        {
          "indexed": true,
          "internalType": "address",
          "name": "user",
          "type": "address"
        },
        {
          "indexed": true,
          "internalType": "address",
          "name": "vault",
          "type": "address"
        },
        {
          "indexed": true,
          "internalType": "address",
          "name": "token",
          "type": "address"
        },
        {
          "indexed": false,
          "internalType": "uint256",
          "name": "amount",
          "type": "uint256"
        },
        {
          "indexed": false,
          "internalType": "uint256",
          "name": "duration",
          "type": "uint256"
        },
        {
          "indexed": false,
          "internalType": "uint256",
          "name": "vaultId",
          "type": "uint256"
        }
      ],
      "name": "VaultCreated",
      "type": "event"
    },
    {
      "anonymous": false,
      "inputs": [
        {
          "indexed": true,
          "internalType": "address",
          "name": "owner",
          "type": "address"
        },
        {
          "indexed": true,
          "internalType": "address",
          "name": "tokenRegistry",
          "type": "address"
        },
        {
          "indexed": true,
          "internalType": "address",
          "name": "penaltyManager",
          "type": "address"
        }
      ],
      "name": "VaultFactoryInitialized",
      "type": "event"
    },
    {
      "anonymous": false,
      "inputs": [
        {
          "indexed": true,
          "internalType": "address",
          "name": "implementation",
          "type": "address"
        }
      ],
      "name": "VaultFactoryUpgraded",
      "type": "event"
    },
    {
      "anonymous": false,
      "inputs": [
        {
          "indexed": true,
          "internalType": "address",
          "name": "user",
          "type": "address"
        },
        {
          "indexed": true,
          "internalType": "address",
          "name": "vault",
          "type": "address"
        },
        {
          "indexed": false,
          "internalType": "uint256",
          "name": "amount",
          "type": "uint256"
        },
        {
          "indexed": false,
          "internalType": "uint256",
          "name": "timestamp",
          "type": "uint256"
        }
      ],
      "name": "VaultWithdrawn",
      "type": "event"
    },
    {
      "anonymous": false,
      "inputs": [
        {
          "indexed": true,
          "internalType": "address",
          "name": "user",
          "type": "address"
        },
        {
          "indexed": true,
          "internalType": "address",
          "name": "vault",
          "type": "address"
        },
        {
          "indexed": false,
          "internalType": "uint256",
          "name": "penalty",
          "type": "uint256"
        },
        {
          "indexed": false,
          "internalType": "uint256",
          "name": "returned",
          "type": "uint256"
        },
        {
          "indexed": false,
          "internalType": "uint256",
          "name": "timestamp",
          "type": "uint256"
        }
      ],
      "name": "VaultWithdrawnEarly",
      "type": "event"
    },
    {
      "inputs": [],
      "name": "LOCK_1_MONTH",
      "outputs": [
        {
          "internalType": "uint256",
          "name": "",
          "type": "uint256"
        }
      ],
      "stateMutability": "view",
      "type": "function"
    },
    {
      "inputs": [],
      "name": "LOCK_1_YEAR",
      "outputs": [
        {
          "internalType": "uint256",
          "name": "",
          "type": "uint256"
        }
      ],
      "stateMutability": "view",
      "type": "function"
    },
    {
      "inputs": [],
      "name": "LOCK_2_MONTHS",
      "outputs": [
        {
          "internalType": "uint256",
          "name": "",
          "type": "uint256"
        }
      ],
      "stateMutability": "view",
      "type": "function"
    },
    {
      "inputs": [],
      "name": "LOCK_3_MONTHS",
      "outputs": [
        {
          "internalType": "uint256",
          "name": "",
          "type": "uint256"
        }
      ],
      "stateMutability": "view",
      "type": "function"
    },
    {
      "inputs": [],
      "name": "LOCK_4_MONTHS",
      "outputs": [
        {
          "internalType": "uint256",
          "name": "",
          "type": "uint256"
        }
      ],
      "stateMutability": "view",
      "type": "function"
    },
    {
      "inputs": [],
      "name": "LOCK_5_MONTHS",
      "outputs": [
        {
          "internalType": "uint256",
          "name": "",
          "type": "uint256"
        }
      ],
      "stateMutability": "view",
      "type": "function"
    },
    {
      "inputs": [],
      "name": "LOCK_6_MONTHS",
      "outputs": [
        {
          "internalType": "uint256",
          "name": "",
          "type": "uint256"
        }
      ],
      "stateMutability": "view",
      "type": "function"
    },
    {
      "inputs": [],
      "name": "UPGRADE_INTERFACE_VERSION",
      "outputs": [
        {
          "internalType": "string",
          "name": "",
          "type": "string"
        }
      ],
      "stateMutability": "view",
      "type": "function"
    },
    {
      "inputs": [
        {
          "internalType": "uint256",
          "name": "",
          "type": "uint256"
        }
      ],
      "name": "allVaults",
      "outputs": [
        {
          "internalType": "address",
          "name": "",
          "type": "address"
        }
      ],
      "stateMutability": "view",
      "type": "function"
    },
    {
      "inputs": [
        {
          "internalType": "address",
          "name": "token",
          "type": "address"
        },
        {
          "internalType": "uint256",
          "name": "amount",
          "type": "uint256"
        },
        {
          "internalType": "uint256",
          "name": "duration",
          "type": "uint256"
        }
      ],
      "name": "createVault",
      "outputs": [
        {
          "internalType": "address",
          "name": "vaultAddress",
          "type": "address"
        }
      ],
      "stateMutability": "nonpayable",
      "type": "function"
    },
    {
      "inputs": [
        {
          "internalType": "address",
          "name": "token",
          "type": "address"
        },
        {
          "internalType": "uint256",
          "name": "amount",
          "type": "uint256"
        },
        {
          "internalType": "address",
          "name": "recipient",
          "type": "address"
        }
      ],
      "name": "emergencyRecover",
      "outputs": [],
      "stateMutability": "nonpayable",
      "type": "function"
    },
    {
      "inputs": [],
      "name": "getAllVaults",
      "outputs": [
        {
          "internalType": "address[]",
          "name": "",
          "type": "address[]"
        }
      ],
      "stateMutability": "view",
      "type": "function"
    },
    {
      "inputs": [],
      "name": "getAvailableLockDurations",
      "outputs": [
        {
          "internalType": "uint256[]",
          "name": "",
          "type": "uint256[]"
        }
      ],
      "stateMutability": "pure",
      "type": "function"
    },
    {
      "inputs": [],
      "name": "getGlobalAnalytics",
      "outputs": [
        {
          "components": [
            {
              "internalType": "uint256",
              "name": "totalVaultsCreated",
              "type": "uint256"
            },
            {
              "internalType": "uint256",
              "name": "totalVaultsCompleted",
              "type": "uint256"
            },
            {
              "internalType": "uint256",
              "name": "totalEarlyWithdrawals",
              "type": "uint256"
            },
            {
              "internalType": "uint256",
              "name": "totalAmountLocked",
              "type": "uint256"
            },
            {
              "internalType": "uint256",
              "name": "totalAmountWithdrawn",
              "type": "uint256"
            },
            {
              "internalType": "uint256",
              "name": "totalPenaltiesCollected",
              "type": "uint256"
            },
            {
              "internalType": "uint256",
              "name": "averageVaultDuration",
              "type": "uint256"
            },
            {
              "internalType": "uint256",
              "name": "totalUsers",
              "type": "uint256"
            },
            {
              "internalType": "uint256",
              "name": "activeUsers",
              "type": "uint256"
            }
          ],
          "internalType": "struct VaultFactory.GlobalAnalytics",
          "name": "",
          "type": "tuple"
        }
      ],
      "stateMutability": "view",
      "type": "function"
    },
    {
      "inputs": [],
      "name": "getLockDurationOptions",
      "outputs": [
        {
          "internalType": "string[]",
          "name": "labels",
          "type": "string[]"
        },
        {
          "internalType": "uint256[]",
          "name": "durations",
          "type": "uint256[]"
        }
      ],
      "stateMutability": "pure",
      "type": "function"
    },
    {
      "inputs": [],
      "name": "getSupportedTokens",
      "outputs": [
        {
          "internalType": "address[]",
          "name": "",
          "type": "address[]"
        }
      ],
      "stateMutability": "view",
      "type": "function"
    },
    {
      "inputs": [
        {
          "internalType": "address",
          "name": "token",
          "type": "address"
        }
      ],
      "name": "getTokenInfo",
      "outputs": [
        {
          "components": [
            {
              "internalType": "string",
              "name": "symbol",
              "type": "string"
            },
            {
              "internalType": "string",
              "name": "name",
              "type": "string"
            },
            {
              "internalType": "string",
              "name": "country",
              "type": "string"
            },
            {
              "internalType": "bool",
              "name": "isSupported",
              "type": "bool"
            },
            {
              "internalType": "uint256",
              "name": "minAmount",
              "type": "uint256"
            }
          ],
          "internalType": "struct TokenRegistry.TokenInfo",
          "name": "",
          "type": "tuple"
        }
      ],
      "stateMutability": "view",
      "type": "function"
    },
    {
      "inputs": [
        {
          "internalType": "address",
          "name": "user",
          "type": "address"
        }
      ],
      "name": "getUserActiveVaults",
      "outputs": [
        {
          "internalType": "address[]",
          "name": "",
          "type": "address[]"
        }
      ],
      "stateMutability": "view",
      "type": "function"
    },
    {
      "inputs": [
        {
          "internalType": "address",
          "name": "user",
          "type": "address"
        }
      ],
      "name": "getUserAnalytics",
      "outputs": [
        {
          "components": [
            {
              "internalType": "uint256",
              "name": "totalSaved",
              "type": "uint256"
            },
            {
              "internalType": "uint256",
              "name": "totalWithdrawn",
              "type": "uint256"
            },
            {
              "internalType": "uint256",
              "name": "currentLocked",
              "type": "uint256"
            },
            {
              "internalType": "uint256",
              "name": "completedVaults",
              "type": "uint256"
            },
            {
              "internalType": "uint256",
              "name": "earlyWithdrawals",
              "type": "uint256"
            },
            {
              "internalType": "uint256",
              "name": "totalPenalties",
              "type": "uint256"
            },
            {
              "internalType": "uint256",
              "name": "averageLockDuration",
              "type": "uint256"
            },
            {
              "internalType": "uint256",
              "name": "lastVaultCreated",
              "type": "uint256"
            },
            {
              "internalType": "uint256",
              "name": "lastVaultCompleted",
              "type": "uint256"
            }
          ],
          "internalType": "struct VaultFactory.UserAnalytics",
          "name": "",
          "type": "tuple"
        }
      ],
      "stateMutability": "view",
      "type": "function"
    },
    {
      "inputs": [
        {
          "internalType": "address",
          "name": "user",
          "type": "address"
        }
      ],
      "name": "getUserInsights",
      "outputs": [
        {
          "internalType": "uint256",
          "name": "totalSaved",
          "type": "uint256"
        },
        {
          "internalType": "uint256",
          "name": "currentLocked",
          "type": "uint256"
        },
        {
          "internalType": "uint256",
          "name": "completionRate",
          "type": "uint256"
        },
        {
          "internalType": "uint256",
          "name": "averageDuration",
          "type": "uint256"
        },
        {
          "internalType": "uint256",
          "name": "totalPenalties",
          "type": "uint256"
        }
      ],
      "stateMutability": "view",
      "type": "function"
    },
    {
      "inputs": [
        {
          "internalType": "address",
          "name": "user",
          "type": "address"
        }
      ],
      "name": "getUserSummary",
      "outputs": [
        {
          "internalType": "uint256",
          "name": "totalVaults",
          "type": "uint256"
        },
        {
          "internalType": "uint256",
          "name": "activeVaults",
          "type": "uint256"
        },
        {
          "internalType": "uint256",
          "name": "completedVaults",
          "type": "uint256"
        },
        {
          "internalType": "uint256",
          "name": "earlyWithdrawals",
          "type": "uint256"
        },
        {
          "internalType": "uint256",
          "name": "totalAmountSaved",
          "type": "uint256"
        },
        {
          "internalType": "uint256",
          "name": "currentAmountLocked",
          "type": "uint256"
        }
      ],
      "stateMutability": "view",
      "type": "function"
    },
    {
      "inputs": [
        {
          "internalType": "address",
          "name": "user",
          "type": "address"
        }
      ],
      "name": "getUserVaultCount",
      "outputs": [
        {
          "internalType": "uint256",
          "name": "",
          "type": "uint256"
        }
      ],
      "stateMutability": "view",
      "type": "function"
    },
    {
      "inputs": [
        {
          "internalType": "address",
          "name": "user",
          "type": "address"
        },
        {
          "internalType": "address",
          "name": "token",
          "type": "address"
        }
      ],
      "name": "getUserVaultCountByToken",
      "outputs": [
        {
          "internalType": "uint256",
          "name": "",
          "type": "uint256"
        }
      ],
      "stateMutability": "view",
      "type": "function"
    },
    {
      "inputs": [
        {
          "internalType": "address",
          "name": "user",
          "type": "address"
        }
      ],
      "name": "getUserVaults",
      "outputs": [
        {
          "internalType": "address[]",
          "name": "",
          "type": "address[]"
        }
      ],
      "stateMutability": "view",
      "type": "function"
    },
    {
      "inputs": [
        {
          "internalType": "address",
          "name": "user",
          "type": "address"
        },
        {
          "internalType": "address",
          "name": "token",
          "type": "address"
        }
      ],
      "name": "getUserVaultsByToken",
      "outputs": [
        {
          "internalType": "address[]",
          "name": "",
          "type": "address[]"
        }
      ],
      "stateMutability": "view",
      "type": "function"
    },
    {
      "inputs": [],
      "name": "getVaultCount",
      "outputs": [
        {
          "internalType": "uint256",
          "name": "",
          "type": "uint256"
        }
      ],
      "stateMutability": "view",
      "type": "function"
    },
    {
      "inputs": [
        {
          "internalType": "address",
          "name": "vaultAddress",
          "type": "address"
        }
      ],
      "name": "getVaultInfo",
      "outputs": [
        {
          "components": [
            {
              "internalType": "address",
              "name": "owner",
              "type": "address"
            },
            {
              "internalType": "address",
              "name": "token",
              "type": "address"
            },
            {
              "internalType": "uint256",
              "name": "amount",
              "type": "uint256"
            },
            {
              "internalType": "uint256",
              "name": "lockStartTime",
              "type": "uint256"
            },
            {
              "internalType": "uint256",
              "name": "lockDuration",
              "type": "uint256"
            },
            {
              "internalType": "uint256",
              "name": "unlockTime",
              "type": "uint256"
            },
            {
              "internalType": "enum SavingsVault.VaultStatus",
              "name": "status",
              "type": "uint8"
            },
            {
              "internalType": "bool",
              "name": "isActive",
              "type": "bool"
            }
          ],
          "internalType": "struct SavingsVault.Vault",
          "name": "",
          "type": "tuple"
        }
      ],
      "stateMutability": "view",
      "type": "function"
    },
    {
      "inputs": [],
      "name": "globalAnalytics",
      "outputs": [
        {
          "internalType": "uint256",
          "name": "totalVaultsCreated",
          "type": "uint256"
        },
        {
          "internalType": "uint256",
          "name": "totalVaultsCompleted",
          "type": "uint256"
        },
        {
          "internalType": "uint256",
          "name": "totalEarlyWithdrawals",
          "type": "uint256"
        },
        {
          "internalType": "uint256",
          "name": "totalAmountLocked",
          "type": "uint256"
        },
        {
          "internalType": "uint256",
          "name": "totalAmountWithdrawn",
          "type": "uint256"
        },
        {
          "internalType": "uint256",
          "name": "totalPenaltiesCollected",
          "type": "uint256"
        },
        {
          "internalType": "uint256",
          "name": "averageVaultDuration",
          "type": "uint256"
        },
        {
          "internalType": "uint256",
          "name": "totalUsers",
          "type": "uint256"
        },
        {
          "internalType": "uint256",
          "name": "activeUsers",
          "type": "uint256"
        }
      ],
      "stateMutability": "view",
      "type": "function"
    },
    {
      "inputs": [
        {
          "internalType": "address",
          "name": "_owner",
          "type": "address"
        },
        {
          "internalType": "address",
          "name": "_tokenRegistry",
          "type": "address"
        },
        {
          "internalType": "address",
          "name": "_penaltyManager",
          "type": "address"
        }
      ],
      "name": "initialize",
      "outputs": [],
      "stateMutability": "nonpayable",
      "type": "function"
    },
    {
      "inputs": [
        {
          "internalType": "uint256",
          "name": "duration",
          "type": "uint256"
        }
      ],
      "name": "isValidLockDuration",
      "outputs": [
        {
          "internalType": "bool",
          "name": "",
          "type": "bool"
        }
      ],
      "stateMutability": "pure",
      "type": "function"
    },
    {
      "inputs": [],
      "name": "owner",
      "outputs": [
        {
          "internalType": "address",
          "name": "",
          "type": "address"
        }
      ],
      "stateMutability": "view",
      "type": "function"
    },
    {
      "inputs": [],
      "name": "penaltyManager",
      "outputs": [
        {
          "internalType": "contract PenaltyManager",
          "name": "",
          "type": "address"
        }
      ],
      "stateMutability": "view",
      "type": "function"
    },
    {
      "inputs": [],
      "name": "proxiableUUID",
      "outputs": [
        {
          "internalType": "bytes32",
          "name": "",
          "type": "bytes32"
        }
      ],
      "stateMutability": "view",
      "type": "function"
    },
    {
      "inputs": [],
      "name": "renounceOwnership",
      "outputs": [],
      "stateMutability": "nonpayable",
      "type": "function"
    },
    {
      "inputs": [],
      "name": "tokenRegistry",
      "outputs": [
        {
          "internalType": "contract TokenRegistry",
          "name": "",
          "type": "address"
        }
      ],
      "stateMutability": "view",
      "type": "function"
    },
    {
      "inputs": [
        {
          "internalType": "address",
          "name": "newOwner",
          "type": "address"
        }
      ],
      "name": "transferOwnership",
      "outputs": [],
      "stateMutability": "nonpayable",
      "type": "function"
    },
    {
      "inputs": [
        {
          "internalType": "address",
          "name": "newManager",
          "type": "address"
        }
      ],
      "name": "updatePenaltyManager",
      "outputs": [],
      "stateMutability": "nonpayable",
      "type": "function"
    },
    {
      "inputs": [
        {
          "internalType": "address",
          "name": "newRegistry",
          "type": "address"
        }
      ],
      "name": "updateTokenRegistry",
      "outputs": [],
      "stateMutability": "nonpayable",
      "type": "function"
    },
    {
      "inputs": [
        {
          "internalType": "address",
          "name": "newImplementation",
          "type": "address"
        },
        {
          "internalType": "bytes",
          "name": "data",
          "type": "bytes"
        }
      ],
      "name": "upgradeToAndCall",
      "outputs": [],
      "stateMutability": "payable",
      "type": "function"
    },
    {
      "inputs": [
        {
          "internalType": "address",
          "name": "",
          "type": "address"
        }
      ],
      "name": "userAnalytics",
      "outputs": [
        {
          "internalType": "uint256",
          "name": "totalSaved",
          "type": "uint256"
        },
        {
          "internalType": "uint256",
          "name": "totalWithdrawn",
          "type": "uint256"
        },
        {
          "internalType": "uint256",
          "name": "currentLocked",
          "type": "uint256"
        },
        {
          "internalType": "uint256",
          "name": "completedVaults",
          "type": "uint256"
        },
        {
          "internalType": "uint256",
          "name": "earlyWithdrawals",
          "type": "uint256"
        },
        {
          "internalType": "uint256",
          "name": "totalPenalties",
          "type": "uint256"
        },
        {
          "internalType": "uint256",
          "name": "averageLockDuration",
          "type": "uint256"
        },
        {
          "internalType": "uint256",
          "name": "lastVaultCreated",
          "type": "uint256"
        },
        {
          "internalType": "uint256",
          "name": "lastVaultCompleted",
          "type": "uint256"
        }
      ],
      "stateMutability": "view",
      "type": "function"
    },
    {
      "inputs": [
        {
          "internalType": "address",
          "name": "",
          "type": "address"
        },
        {
          "internalType": "uint256",
          "name": "",
          "type": "uint256"
        }
      ],
      "name": "userVaults",
      "outputs": [
        {
          "internalType": "address",
          "name": "",
          "type": "address"
        }
      ],
      "stateMutability": "view",
      "type": "function"
    },
    {
      "inputs": [
        {
          "internalType": "address",
          "name": "",
          "type": "address"
        },
        {
          "internalType": "address",
          "name": "",
          "type": "address"
        },
        {
          "internalType": "uint256",
          "name": "",
          "type": "uint256"
        }
      ],
      "name": "userVaultsByToken",
      "outputs": [
        {
          "internalType": "address",
          "name": "",
          "type": "address"
        }
      ],
      "stateMutability": "view",
      "type": "function"
    },
    {
      "inputs": [],
      "name": "vaultCounter",
      "outputs": [
        {
          "internalType": "uint256",
          "name": "",
          "type": "uint256"
        }
      ],
      "stateMutability": "view",
      "type": "function"
    },
    {
      "inputs": [
        {
          "internalType": "address",
          "name": "vaultAddress",
          "type": "address"
        }
      ],
      "name": "withdrawEarlyFromVault",
      "outputs": [],
      "stateMutability": "nonpayable",
      "type": "function"
    },
    {
      "inputs": [
        {
          "internalType": "address",
          "name": "vaultAddress",
          "type": "address"
        }
      ],
      "name": "withdrawFromVault",
      "outputs": [],
      "stateMutability": "nonpayable",
      "type": "function"
    }
  ],
  "bytecode": "0x60a06040523060805234801561001457600080fd5b5061001d610022565b6100d4565b7ff0c57e16840df040f15088dc2f81fe391c3923bec73e23a9662efc9c229c6a00805468010000000000000000900460ff16156100725760405163f92ee8a960e01b815260040160405180910390fd5b80546001600160401b03908116146100d15780546001600160401b0319166001600160401b0390811782556040519081527fc7f505b2f371ae2175ee4913f4499e1f2633a7b5936321eed1cdaeb6115181d29060200160405180910390a15b50565b608051615ccd6100fd60003960008181612c1801528181612c410152612db90152615ccd6000f3fe6080604052600436106102725760003560e01c806386cf55bd1161014f578063ac958041116100c1578063c800adaf1161007a578063c800adaf1461087c578063d3c7c2c7146108e5578063e7f3c69c146108fa578063edb5e0241461091a578063f2fde38b14610931578063f3c1c3be1461095157600080fd5b8063ac95804114610787578063ad3cb1cc1461079d578063afbc4ffc146107db578063b72cf77a146107fd578063c0a9c35d14610845578063c0c53b8b1461085c57600080fd5b80639094a91e116101135780639094a91e146106d257806397331bf9146106f25780639c841fef146107075780639d23c4c714610727578063a175370d14610747578063a94e5ef01461076757600080fd5b806386cf55bd146105a85780638918d72b146105d55780638da5cb5b1461061b5780638fbd0c2d1461065857806390229af7146106a557600080fd5b80634f1ef286116101e857806374d4e491116101ac57806374d4e491146104d6578063770964db146104eb57806378d5bafa14610502578063828edbe8146105255780638598bcc41461055b57806385a422591461058857600080fd5b80634f1ef286146103fe57806352d1902d14610411578063530ca1301461042657806353a54aac146104a1578063715018a6146104c157600080fd5b806328875b6b1161023a57806328875b6b146103275780632dd0d9981461035f5780633624aa5d14610376578063486b0acb146103a657806349100bfb146103c65780634a51cac0146103e657600080fd5b8063046ee2b814610277578063086f93a8146102a157806311149445146102c35780631f69565f146102da5780631fa915a414610307575b600080fd5b34801561028357600080fd5b5061028e629e340081565b6040519081526020015b60405180910390f35b3480156102ad57600080fd5b506102c16102bc3660046131db565b610966565b005b3480156102cf57600080fd5b5061028e6276a70081565b3480156102e657600080fd5b506102fa6102f536600461321d565b610ad7565b604051610298919061328a565b34801561031357600080fd5b506102c161032236600461321d565b610b83565b34801561033357600080fd5b50600154610347906001600160a01b031681565b6040516001600160a01b039091168152602001610298565b34801561036b57600080fd5b5061028e62c5c10081565b34801561038257600080fd5b50610396610391366004613304565b610c7f565b6040519015158152602001610298565b3480156103b257600080fd5b506103476103c136600461331d565b610c9a565b3480156103d257600080fd5b506102c16103e136600461321d565b611027565b3480156103f257600080fd5b5061028e6301e1338081565b6102c161040c36600461340a565b6113a0565b34801561041d57600080fd5b5061028e6113bf565b34801561043257600080fd5b50600654600754600854600954600a54600b54600c54600d54600e5461045d98979695949392919089565b60408051998a5260208a0198909852968801959095526060870193909352608086019190915260a085015260c084015260e083015261010082015261012001610298565b3480156104ad57600080fd5b506102c16104bc36600461321d565b6113dc565b3480156104cd57600080fd5b506102c16114da565b3480156104e257600080fd5b50600f5461028e565b3480156104f757600080fd5b5061028e62278d0081565b34801561050e57600080fd5b506105176114ee565b6040516102989291906134d8565b34801561053157600080fd5b5061028e61054036600461321d565b6001600160a01b031660009081526002602052604090205490565b34801561056757600080fd5b5061057b61057636600461321d565b6117f2565b6040516102989190613547565b34801561059457600080fd5b506102c16105a336600461321d565b6118c2565b3480156105b457600080fd5b506105c86105c33660046135ab565b611b3e565b60405161029891906135e4565b3480156105e157600080fd5b5061028e6105f03660046135ab565b6001600160a01b03918216600090815260036020908152604080832093909416825291909152205490565b34801561062757600080fd5b507f9016d09d72d40fdae2fd8ceac6b6234c7706214fd39c1cd1e609a0528c199300546001600160a01b0316610347565b34801561066457600080fd5b5061067861067336600461321d565b611bc1565b604080519687526020870195909552938501929092526060840152608083015260a082015260c001610298565b3480156106b157600080fd5b506106c56106c036600461321d565b611ce7565b6040516102989190613646565b3480156106de57600080fd5b506103476106ed366004613304565b611d52565b3480156106fe57600080fd5b506105c8611d7c565b34801561071357600080fd5b506103476107223660046136d4565b611dde565b34801561073357600080fd5b50600054610347906001600160a01b031681565b34801561075357600080fd5b506105c861076236600461321d565b611e16565b34801561077357600080fd5b50610347610782366004613700565b611fea565b34801561079357600080fd5b5061028e600f5481565b3480156107a957600080fd5b506107ce604051806040016040528060058152602001640352e302e360dc1b81525081565b6040516102989190613741565b3480156107e757600080fd5b506107f061202f565b6040516102989190613754565b34801561080957600080fd5b5061081d61081836600461321d565b612151565b604080519586526020860194909452928401919091526060830152608082015260a001610298565b34801561085157600080fd5b5061028e62ed4e0081565b34801561086857600080fd5b506102c1610877366004613767565b61222f565b34801561088857600080fd5b5061045d61089736600461321d565b60056020528060005260406000206000915090508060000154908060010154908060020154908060030154908060040154908060050154908060060154908060070154908060080154905089565b3480156108f157600080fd5b506105c861243b565b34801561090657600080fd5b506105c861091536600461321d565b6124b1565b34801561092657600080fd5b5061028e624f1a0081565b34801561093d57600080fd5b506102c161094c36600461321d565b612527565b34801561095d57600080fd5b5061057b612562565b61096e612608565b6001600160a01b0383166109c15760405162461bcd60e51b8152602060048201526015602482015274496e76616c696420746f6b656e206164647265737360581b60448201526064015b60405180910390fd5b6001600160a01b038116610a175760405162461bcd60e51b815260206004820152601960248201527f496e76616c696420726563697069656e7420616464726573730000000000000060448201526064016109b8565b60008211610a675760405162461bcd60e51b815260206004820152601d60248201527f416d6f756e74206d7573742062652067726561746572207468616e203000000060448201526064016109b8565b610a7b6001600160a01b0384168284612663565b336001600160a01b0316816001600160a01b0316846001600160a01b03167f2282d8a3b07f4425561cbf225ce6940046294835b6138ae3ffd45d87a515b51685604051610aca91815260200190565b60405180910390a4505050565b610b0b6040518060a00160405280606081526020016060815260200160608152602001600015158152602001600081525090565b600054604051631f69565f60e01b81526001600160a01b03848116600483015290911690631f69565f90602401600060405180830381865afa158015610b55573d6000803e3d6000fd5b505050506040513d6000823e601f3d908101601f19168201604052610b7d9190810190613809565b92915050565b610b8b612608565b6001600160a01b038116610be15760405162461bcd60e51b815260206004820152601860248201527f496e76616c69642072656769737472792061646472657373000000000000000060448201526064016109b8565b6000546001600160a01b0390811690821603610c2f5760405162461bcd60e51b815260206004820152600d60248201526c53616d6520726567697374727960981b60448201526064016109b8565b600080546001600160a01b031981166001600160a01b038481169182178455604051921692339284917fb930976fe3861b681d9ff47fd2a0cd7631c018a3e76b25a945098e35e59c8ad691a45050565b600062278d008210158015610b7d5750506301e13380101590565b600080546040516375151b6360e01b81526001600160a01b038087166004830152869216906375151b6390602401602060405180830381865afa158015610ce5573d6000803e3d6000fd5b505050506040513d601f19601f82011682018060405250810190610d0991906138eb565b610d4b5760405162461bcd60e51b8152602060048201526013602482015272151bdad95b881b9bdd081cdd5c1c1bdc9d1959606a1b60448201526064016109b8565b60005460405163459bfbc760e01b81526001600160a01b038088166004830152602482018790528792879291169063459bfbc790604401602060405180830381865afa158015610d9f573d6000803e3d6000fd5b505050506040513d601f19601f82011682018060405250810190610dc391906138eb565b610e065760405162461bcd60e51b8152602060048201526014602482015273416d6f756e742062656c6f77206d696e696d756d60601b60448201526064016109b8565b610e0e6126c7565b610e236001600160a01b0388163330896126ff565b6000604051610e3190613151565b604051809103906000f080158015610e4d573d6000803e3d6000fd5b5060405163eb990c5960e01b81523360048201526001600160a01b038a81166024830152604482018a9052606482018990529196508692509082169063eb990c5990608401600060405180830381600087803b158015610eac57600080fd5b505af1158015610ec0573d6000803e3d6000fd5b50610ed9925050506001600160a01b0389168689612663565b3360008181526002602090815260408083208054600181810183559185528385200180546001600160a01b038c81166001600160a01b0319928316811790935596865260038552838620968f16865295845291842080548083018255908552928420909201805485168217905560048054928301815583527f8a35acfbc15ff81a39ae7d344fd709f28e8600b4aa8c65c6b64bfe7fe36bd19b909101805490931617909155600f805491610f8c8361391c565b9190505550610fa03388886001600061273e565b610fae8787600160006129ea565b600f546040805189815260208101899052908101919091526001600160a01b03808a16919087169033907f9e92bd758e49518133a2d6920efe93a5575d296354a844f43bdb83128c78a2ce9060600160405180910390a45061101d6001600080516020615c7883398151915255565b5050509392505050565b61102f6126c7565b60008190506000816001600160a01b0316637f98aa716040518163ffffffff1660e01b815260040161010060405180830381865afa158015611075573d6000803e3d6000fd5b505050506040513d601f19601f82011682018060405250810190611099919061394f565b80519091506001600160a01b031633146110e75760405162461bcd60e51b815260206004820152600f60248201526e2737ba103b30bab63a1037bbb732b960891b60448201526064016109b8565b816001600160a01b0316637f61559f6040518163ffffffff1660e01b8152600401602060405180830381865afa158015611125573d6000803e3d6000fd5b505050506040513d601f19601f8201168201806040525081019061114991906138eb565b61118d5760405162461bcd60e51b815260206004820152601560248201527443616e6e6f74207769746864726177206561726c7960581b60448201526064016109b8565b6001546040828101519051634ecce45160e01b815260048101919091526000916001600160a01b031690634ecce451906024016040805180830381865afa1580156111dc573d6000803e3d6000fd5b505050506040513d601f19601f8201168201806040525081019061120091906139e2565b50602083015190915061121e906001600160a01b03163330846126ff565b61123c338284604001516112329190613a06565b600080600061273e565b61125981836040015161124f9190613a06565b60008060006129ea565b6040516327a5a47960e11b8152600481018290526001600160a01b03841690634f4b48f290602401600060405180830381600087803b15801561129b57600080fd5b505af11580156112af573d6000803e3d6000fd5b505060015460208501516040516371292c9d60e01b81526001600160a01b03918216600482015260248101869052911692506371292c9d9150604401600060405180830381600087803b15801561130557600080fd5b505af1158015611319573d6000803e3d6000fd5b50505050836001600160a01b0316336001600160a01b03167f1965b0040e848b3fb0fe289c7b72fef35045e71278517da45e3e1cc661e4068b838486604001516113639190613a06565b60408051928352602083019190915242908201526060015b60405180910390a350505061139d6001600080516020615c7883398151915255565b50565b6113a8612c0d565b6113b182612cb2565b6113bb8282612cf1565b5050565b60006113c9612dae565b50600080516020615c5883398151915290565b6113e4612608565b6001600160a01b03811661143a5760405162461bcd60e51b815260206004820152601760248201527f496e76616c6964206d616e61676572206164647265737300000000000000000060448201526064016109b8565b6001546001600160a01b03908116908216036114875760405162461bcd60e51b815260206004820152600c60248201526b29b0b6b29036b0b730b3b2b960a11b60448201526064016109b8565b600180546001600160a01b038381166001600160a01b031983168117909355604051911691339183907f7a4712c178c3d2665b6d4c2c37013f753090f6dfd71a1cb71bae56410b9d497690600090a45050565b6114e2612608565b6114ec6000612df7565b565b6040805160078082526101008201909252606091829190816020015b606081526020019060019003908161150a57505060408051600780825261010082019092529193506020820160e08036833701905050905060405180604001604052806007815260200166062409adedce8d60cb1b8152508260008151811061157557611575613a19565b60200260200101819052506040518060400160405280600881526020016732204d6f6e74687360c01b815250826001815181106115b4576115b4613a19565b60200260200101819052506040518060400160405280600881526020016733204d6f6e74687360c01b815250826002815181106115f3576115f3613a19565b60200260200101819052506040518060400160405280600881526020016734204d6f6e74687360c01b8152508260038151811061163257611632613a19565b60200260200101819052506040518060400160405280600881526020016735204d6f6e74687360c01b8152508260048151811061167157611671613a19565b60200260200101819052506040518060400160405280600881526020016736204d6f6e74687360c01b815250826005815181106116b0576116b0613a19565b60200260200101819052506040518060400160405280600681526020016518902cb2b0b960d11b815250826006815181106116ed576116ed613a19565b602002602001018190525062278d008160008151811061170f5761170f613a19565b602002602001018181525050624f1a008160018151811061173257611732613a19565b6020026020010181815250506276a7008160028151811061175557611755613a19565b602002602001018181525050629e34008160038151811061177857611778613a19565b60200260200101818152505062c5c1008160048151811061179b5761179b613a19565b60200260200101818152505062ed4e00816005815181106117be576117be613a19565b6020026020010181815250506301e13380816006815181106117e2576117e2613a19565b6020026020010181815250509091565b6118416040518061012001604052806000815260200160008152602001600081526020016000815260200160008152602001600081526020016000815260200160008152602001600081525090565b506001600160a01b03166000908152600560208181526040928390208351610120810185528154815260018201549281019290925260028101549382019390935260038301546060820152600483015460808201529082015460a0820152600682015460c0820152600782015460e082015260089091015461010082015290565b6118ca6126c7565b60008190506000816001600160a01b0316637f98aa716040518163ffffffff1660e01b815260040161010060405180830381865afa158015611910573d6000803e3d6000fd5b505050506040513d601f19601f82011682018060405250810190611934919061394f565b80519091506001600160a01b031633146119825760405162461bcd60e51b815260206004820152600f60248201526e2737ba103b30bab63a1037bbb732b960891b60448201526064016109b8565b816001600160a01b031663b51459fe6040518163ffffffff1660e01b8152600401602060405180830381865afa1580156119c0573d6000803e3d6000fd5b505050506040513d601f19601f820116820180604052508101906119e491906138eb565b611a265760405162461bcd60e51b815260206004820152601360248201527210d85b9b9bdd081dda5d1a191c985dc81e595d606a1b60448201526064016109b8565b6000826001600160a01b031663ed12e8ef6040518163ffffffff1660e01b8152600401602060405180830381865afa158015611a66573d6000803e3d6000fd5b505050506040513d601f19601f82011682018060405250810190611a8a9190613a2f565b9050611a9b3382600080600161273e565b611aa98160008060016129ea565b826001600160a01b0316632e37eda36040518163ffffffff1660e01b8152600401600060405180830381600087803b158015611ae457600080fd5b505af1158015611af8573d6000803e3d6000fd5b5050604080518481524260208201526001600160a01b03881693503392507f16b5e3c8afe8358fdb689f1585b32cc76f998a9fd03d766d8ffa201da29f05c9910161137b565b6001600160a01b038083166000908152600360209081526040808320938516835292815290829020805483518184028101840190945280845260609392830182828015611bb457602002820191906000526020600020905b81546001600160a01b03168152600190910190602001808311611b96575b5050505050905092915050565b6001600160a01b0381166000818152600560208181526040808420815161012081018352815481526001820154818501526002808301548285015260038301546060830152600483015460808301529482015460a0820152600682015460c0820152600782015460e0820152600890910154610100820152948452918152818320805483518184028101840190945280845293948594859485948594859493859392830182828015611c9c57602002820191906000526020600020905b81546001600160a01b03168152600190910190602001808311611c7e575b50505050509050805197508160600151955081608001519450848689611cc29190613a06565b611ccc9190613a06565b96508160000151935081604001519250505091939550919395565b611cef61315e565b816001600160a01b0316637f98aa716040518163ffffffff1660e01b815260040161010060405180830381865afa158015611d2e573d6000803e3d6000fd5b505050506040513d601f19601f82011682018060405250810190610b7d919061394f565b60048181548110611d6257600080fd5b6000918252602090912001546001600160a01b0316905081565b60606004805480602002602001604051908101604052809291908181526020018280548015611dd457602002820191906000526020600020905b81546001600160a01b03168152600190910190602001808311611db6575b5050505050905090565b60026020528160005260406000208181548110611dfa57600080fd5b6000918252602090912001546001600160a01b03169150829050565b6001600160a01b0381166000908152600260209081526040808320805482518185028101850190935280835260609493830182828015611e7f57602002820191906000526020600020905b81546001600160a01b03168152600190910190602001808311611e61575b50505050509050600081516001600160401b03811115611ea157611ea1613352565b604051908082528060200260200182016040528015611eca578160200160208202803683370190505b5090506000805b8351811015611fe0576000848281518110611eee57611eee613a19565b60200260200101516001600160a01b0316637f98aa716040518163ffffffff1660e01b815260040161010060405180830381865afa158015611f34573d6000803e3d6000fd5b505050506040513d601f19601f82011682018060405250810190611f58919061394f565b90508060e001518015611f80575060008160c001516002811115611f7e57611f7e613630565b145b15611fd757848281518110611f9757611f97613a19565b6020026020010151848481518110611fb157611fb1613a19565b6001600160a01b039092166020928302919091019091015282611fd38161391c565b9350505b50600101611ed1565b5081529392505050565b6003602052826000526040600020602052816000526040600020818154811061201257600080fd5b6000918252602090912001546001600160a01b0316925083915050565b6040805160078082526101008201909252606091600091906020820160e08036833701905050905062278d008160008151811061206e5761206e613a19565b602002602001018181525050624f1a008160018151811061209157612091613a19565b6020026020010181815250506276a700816002815181106120b4576120b4613a19565b602002602001018181525050629e3400816003815181106120d7576120d7613a19565b60200260200101818152505062c5c100816004815181106120fa576120fa613a19565b60200260200101818152505062ed4e008160058151811061211d5761211d613a19565b6020026020010181815250506301e133808160068151811061214157612141613a19565b6020908102919091010152919050565b6001600160a01b0381166000908152600560208181526040808420815161012081018352815480825260018301549482019490945260028201549281018390526003820154606082018190526004830154608083018190529583015460a0830152600683015460c0830152600783015460e08301526008909201546101008201529294919391928392839283916121e791613a48565b9050600081116121f8576000612214565b808260600151606461220a9190613a5b565b6122149190613a72565b94508160c0015193508160a001519250505091939590929450565b6000612239612e68565b805490915060ff600160401b82041615906001600160401b03166000811580156122605750825b90506000826001600160401b0316600114801561227c5750303b155b90508115801561228a575080155b156122a85760405163f92ee8a960e01b815260040160405180910390fd5b845467ffffffffffffffff1916600117855583156122d257845460ff60401b1916600160401b1785555b6001600160a01b0387166123215760405162461bcd60e51b8152602060048201526016602482015275496e76616c696420746f6b656e20726567697374727960501b60448201526064016109b8565b6001600160a01b0386166123775760405162461bcd60e51b815260206004820152601760248201527f496e76616c69642070656e616c7479206d616e6167657200000000000000000060448201526064016109b8565b61238088612e91565b612388612ea2565b612390612eb2565b600080546001600160a01b03808a166001600160a01b031992831681178455600180548b841694168417905560405192939092918c16917f02be925b96150c79df970b323cf8e4a3ddf8f992cea9725c452418b4b2c935d79190a4831561243157845460ff60401b19168555604051600181527fc7f505b2f371ae2175ee4913f4499e1f2633a7b5936321eed1cdaeb6115181d29060200160405180910390a15b5050505050505050565b600080546040805163d3c7c2c760e01b815290516060936001600160a01b039093169263d3c7c2c792600480820193918290030181865afa158015612484573d6000803e3d6000fd5b505050506040513d6000823e601f3d908101601f191682016040526124ac9190810190613a94565b905090565b6001600160a01b03811660009081526002602090815260409182902080548351818402810184019094528084526060939283018282801561251b57602002820191906000526020600020905b81546001600160a01b031681526001909101906020018083116124fd575b50505050509050919050565b61252f612608565b6001600160a01b03811661255957604051631e4fbdf760e01b8152600060048201526024016109b8565b61139d81612df7565b6125b16040518061012001604052806000815260200160008152602001600081526020016000815260200160008152602001600081526020016000815260200160008152602001600081525090565b50604080516101208101825260065481526007546020820152600854918101919091526009546060820152600a546080820152600b5460a0820152600c5460c0820152600d5460e0820152600e5461010082015290565b3361263a7f9016d09d72d40fdae2fd8ceac6b6234c7706214fd39c1cd1e609a0528c199300546001600160a01b031690565b6001600160a01b0316146114ec5760405163118cdaa760e01b81523360048201526024016109b8565b6040516001600160a01b038381166024830152604482018390526126c291859182169063a9059cbb906064015b604051602081830303815290604052915060e01b6020820180516001600160e01b038381831617835250505050612eba565b505050565b600080516020615c788339815191528054600119016126f957604051633ee5aeb560e01b815260040160405180910390fd5b60029055565b6040516001600160a01b0384811660248301528381166044830152606482018390526127389186918216906323b872dd90608401612690565b50505050565b6001600160a01b038516600090815260056020526040902082156128ae5780546127688682613a48565b10156127af5760405162461bcd60e51b815260206004820152601660248201527513dd995c999b1bddc81a5b881d1bdd185b14d85d995960521b60448201526064016109b8565b60028101546127be8682613a48565b101561280c5760405162461bcd60e51b815260206004820152601960248201527f4f766572666c6f7720696e2063757272656e744c6f636b65640000000000000060448201526064016109b8565b848160000160008282546128209190613a48565b925050819055508481600201600082825461283b9190613a48565b90915550504260078201556004810154600382015460009161285c91613a48565b905080156128a45760008183600601546128769190613a5b565b90506128828682613a48565b905061288f826001613a48565b6128999082613a72565b6006840155506128ac565b600682018590555b505b811561290a57848160010160008282546128c89190613a48565b92505081905550848160020160008282546128e39190613a06565b90915550506003810180549060006128fa8361391c565b909155505042600882015561298b565b8261298b57848160010160008282546129239190613a48565b925050819055508481600201600082825461293e9190613a06565b90915550506004810180549060006129558361391c565b909155506064905061296886600a613a5b565b6129729190613a72565b8160050160008282546129859190613a48565b90915550505b805460028201546003830154604080519384526020840192909252908201526001600160a01b038716907fff1b6a1421fe6dba13c7752e3154e6c16ff4c06fcafde01c0d2cb3f83ac2b2299060600160405180910390a2505050505050565b8115612ad95760068054906000612a008361391c565b9091555050600954612a128582613a48565b1015612a605760405162461bcd60e51b815260206004820152601d60248201527f4f766572666c6f7720696e20746f74616c416d6f756e744c6f636b656400000060448201526064016109b8565b8360066003016000828254612a759190613a48565b9091555050600854600754600091612a8c91613a48565b90508015612ad157600c54600090612aa5908390613a5b565b9050612ab18582613a48565b9050612abe826001613a48565b612ac89082613a72565b600c5550612ad7565b600c8490555b505b8015612b2e5760078054906000612aef8361391c565b91905055508360066004016000828254612b099190613a48565b909155505060098054859190600090612b23908490613a06565b90915550612bac9050565b81612bac5760088054906000612b438361391c565b91905055508360066004016000828254612b5d9190613a48565b909155505060098054859190600090612b77908490613a06565b9091555060649050612b8a85600a613a5b565b612b949190613a72565b600b8054600090612ba6908490613a48565b90915550505b600654600d5460095460408051938452602084019290925282820152517f4c3fd3911bfd2c068873ad56d001bce05e6072a00526c5d8c0c013ff4fb587a19181900360600190a150505050565b6001600080516020615c7883398151915255565b306001600160a01b037f0000000000000000000000000000000000000000000000000000000000000000161480612c9457507f00000000000000000000000000000000000000000000000000000000000000006001600160a01b0316612c88600080516020615c58833981519152546001600160a01b031690565b6001600160a01b031614155b156114ec5760405163703e46dd60e11b815260040160405180910390fd5b612cba612608565b6040516001600160a01b038216907f7afc62b70f29c8954e3d766b492899873bf6a41eda9eaf214efef0984494098490600090a250565b816001600160a01b03166352d1902d6040518163ffffffff1660e01b8152600401602060405180830381865afa925050508015612d4b575060408051601f3d908101601f19168201909252612d4891810190613a2f565b60015b612d7357604051634c9c8ce360e01b81526001600160a01b03831660048201526024016109b8565b600080516020615c588339815191528114612da457604051632a87526960e21b8152600481018290526024016109b8565b6126c28383612f2b565b306001600160a01b037f000000000000000000000000000000000000000000000000000000000000000016146114ec5760405163703e46dd60e11b815260040160405180910390fd5b7f9016d09d72d40fdae2fd8ceac6b6234c7706214fd39c1cd1e609a0528c19930080546001600160a01b031981166001600160a01b03848116918217845560405192169182907f8be0079c531659141344cd1fd0a4f28419497f9722a3daafe3b4186f6b6457e090600090a3505050565b6000807ff0c57e16840df040f15088dc2f81fe391c3923bec73e23a9662efc9c229c6a00610b7d565b612e99612f81565b61139d81612fa6565b612eaa612f81565b6114ec612fae565b6114ec612f81565b600080602060008451602086016000885af180612edd576040513d6000823e3d81fd5b50506000513d91508115612ef5578060011415612f02565b6001600160a01b0384163b155b1561273857604051635274afe760e01b81526001600160a01b03851660048201526024016109b8565b612f3482612fb6565b6040516001600160a01b038316907fbc7cd75a20ee27fd9adebab32041f755214dbc6bffa90cc0225b39da2e5c2d3b90600090a2805115612f79576126c2828261301b565b6113bb613091565b612f896130b0565b6114ec57604051631afcd79f60e31b815260040160405180910390fd5b61252f612f81565b612bf9612f81565b806001600160a01b03163b600003612fec57604051634c9c8ce360e01b81526001600160a01b03821660048201526024016109b8565b600080516020615c5883398151915280546001600160a01b0319166001600160a01b0392909216919091179055565b6060600080846001600160a01b0316846040516130389190613b4b565b600060405180830381855af49150503d8060008114613073576040519150601f19603f3d011682016040523d82523d6000602084013e613078565b606091505b50915091506130888583836130ca565b95945050505050565b34156114ec5760405163b398979f60e01b815260040160405180910390fd5b60006130ba612e68565b54600160401b900460ff16919050565b6060826130df576130da82613129565b613122565b81511580156130f657506001600160a01b0384163b155b1561311f57604051639996b31560e01b81526001600160a01b03851660048201526024016109b8565b50805b9392505050565b80511561313857805160208201fd5b60405163d6bda27560e01b815260040160405180910390fd5b6120f080613b6883390190565b60405180610100016040528060006001600160a01b0316815260200160006001600160a01b0316815260200160008152602001600081526020016000815260200160008152602001600060028111156131b9576131b9613630565b8152600060209091015290565b6001600160a01b038116811461139d57600080fd5b6000806000606084860312156131f057600080fd5b83356131fb816131c6565b9250602084013591506040840135613212816131c6565b809150509250925092565b60006020828403121561322f57600080fd5b8135613122816131c6565b60005b8381101561325557818101518382015260200161323d565b50506000910152565b6000815180845261327681602086016020860161323a565b601f01601f19169290920160200192915050565b602081526000825160a060208401526132a660c084018261325e565b90506020840151601f198483030160408501526132c3828261325e565b9150506040840151601f198483030160608501526132e1828261325e565b915050606084015115156080840152608084015160a08401528091505092915050565b60006020828403121561331657600080fd5b5035919050565b60008060006060848603121561333257600080fd5b833561333d816131c6565b95602085013595506040909401359392505050565b634e487b7160e01b600052604160045260246000fd5b60405160a081016001600160401b038111828210171561338a5761338a613352565b60405290565b60405161010081016001600160401b038111828210171561338a5761338a613352565b604051601f8201601f191681016001600160401b03811182821017156133db576133db613352565b604052919050565b60006001600160401b038211156133fc576133fc613352565b50601f01601f191660200190565b6000806040838503121561341d57600080fd5b8235613428816131c6565b915060208301356001600160401b0381111561344357600080fd5b8301601f8101851361345457600080fd5b8035613467613462826133e3565b6133b3565b81815286602083850101111561347c57600080fd5b816020840160208301376000602083830101528093505050509250929050565b600081518084526020840193506020830160005b828110156134ce5781518652602095860195909101906001016134b0565b5093949350505050565b6000604082016040835280855180835260608501915060608160051b86010192506020870160005b8281101561353157605f1987860301845261351c85835161325e565b94506020938401939190910190600101613500565b505050508281036020840152613088818561349c565b6101208101610b7d8284805182526020810151602083015260408101516040830152606081015160608301526080810151608083015260a081015160a083015260c081015160c083015260e081015160e08301526101008101516101008301525050565b600080604083850312156135be57600080fd5b82356135c9816131c6565b915060208301356135d9816131c6565b809150509250929050565b602080825282518282018190526000918401906040840190835b818110156136255783516001600160a01b03168352602093840193909201916001016135fe565b509095945050505050565b634e487b7160e01b600052602160045260246000fd5b81516001600160a01b0390811682526020808401519091169082015260408083015190820152606080830151908201526080808301519082015260a0828101519082015260c0820151610100820190600381106136b357634e487b7160e01b600052602160045260246000fd5b8060c08401525060e08301516136cd60e084018215159052565b5092915050565b600080604083850312156136e757600080fd5b82356136f2816131c6565b946020939093013593505050565b60008060006060848603121561371557600080fd5b8335613720816131c6565b92506020840135613730816131c6565b929592945050506040919091013590565b602081526000613122602083018461325e565b602081526000613122602083018461349c565b60008060006060848603121561377c57600080fd5b8335613787816131c6565b92506020840135613797816131c6565b91506040840135613212816131c6565b600082601f8301126137b857600080fd5b81516137c6613462826133e3565b8181528460208386010111156137db57600080fd5b6137ec82602083016020870161323a565b949350505050565b8051801515811461380457600080fd5b919050565b60006020828403121561381b57600080fd5b81516001600160401b0381111561383157600080fd5b820160a0818503121561384357600080fd5b61384b613368565b81516001600160401b0381111561386157600080fd5b61386d868285016137a7565b82525060208201516001600160401b0381111561388957600080fd5b613895868285016137a7565b60208301525060408201516001600160401b038111156138b457600080fd5b6138c0868285016137a7565b6040830152506138d2606083016137f4565b6060820152608091820151918101919091529392505050565b6000602082840312156138fd57600080fd5b613122826137f4565b634e487b7160e01b600052601160045260246000fd5b60006001820161392e5761392e613906565b5060010190565b8051613804816131c6565b80516003811061380457600080fd5b600061010082840312801561396357600080fd5b50600061396e613390565b8351613979816131c6565b815261398760208501613935565b602082015260408481015190820152606080850151908201526080808501519082015260a08085015190820181905291506139c460c08501613940565b60c08201526139d560e085016137f4565b60e0820152949350505050565b600080604083850312156139f557600080fd5b505080516020909101519092909150565b81810381811115610b7d57610b7d613906565b634e487b7160e01b600052603260045260246000fd5b600060208284031215613a4157600080fd5b5051919050565b80820180821115610b7d57610b7d613906565b8082028115828204841417610b7d57610b7d613906565b600082613a8f57634e487b7160e01b600052601260045260246000fd5b500490565b600060208284031215613aa657600080fd5b81516001600160401b03811115613abc57600080fd5b8201601f81018413613acd57600080fd5b80516001600160401b03811115613ae657613ae6613352565b8060051b613af6602082016133b3565b91825260208184018101929081019087841115613b1257600080fd5b6020850194505b83851015613b405784519250613b2e836131c6565b82825260209485019490910190613b19565b979650505050505050565b60008251613b5d81846020870161323a565b919091019291505056fe60a06040523060805234801561001457600080fd5b5061001d610022565b6100d4565b7ff0c57e16840df040f15088dc2f81fe391c3923bec73e23a9662efc9c229c6a00805468010000000000000000900460ff16156100725760405163f92ee8a960e01b815260040160405180910390fd5b80546001600160401b03908116146100d15780546001600160401b0319166001600160401b0390811782556040519081527fc7f505b2f371ae2175ee4913f4499e1f2633a7b5936321eed1cdaeb6115181d29060200160405180910390a15b50565b608051611ff36100fd6000396000818161160001528181611629015261176a0152611ff36000f3fe6080604052600436106101e35760003560e01c80638da5cb5b11610102578063c0a9c35d11610095578063edb5e02411610064578063edb5e024146104c4578063efb98bcf146104db578063f2fde38b146104f0578063fbfa77cf1461051057600080fd5b8063c0a9c35d14610463578063db2e21bc1461047a578063eb990c591461048f578063ed12e8ef146104af57600080fd5b8063ad3cb1cc116100d1578063ad3cb1cc146103d9578063afbc4ffc14610417578063b3b4c96614610439578063b51459fe1461044e57600080fd5b80638da5cb5b1461036257806395a4cdcb1461038f5780639e0879c2146103a4578063a992f22a146103b957600080fd5b80634f4b48f21161017a57806378b4330f1161014957806378b4330f146102ec5780637f61559f146103035780637f98aa71146103285780638380edb71461034a57600080fd5b80634f4b48f2146102a257806352d1902d146102c2578063715018a6146102d7578063770964db146102ec57600080fd5b806339a0dccc116101b657806339a0dccc146102575780634a51cac0146102775780634f1bfc9e146102775780634f1ef2861461028f57600080fd5b8063046ee2b8146101e857806311149445146102125780632dd0d998146102295780632e37eda314610240575b600080fd5b3480156101f457600080fd5b506101ff629e340081565b6040519081526020015b60405180910390f35b34801561021e57600080fd5b506101ff6276a70081565b34801561023557600080fd5b506101ff62c5c10081565b34801561024c57600080fd5b5061025561056b565b005b34801561026357600080fd5b506101ff610272366004611ba2565b610722565b34801561028357600080fd5b506101ff6301e1338081565b61025561029d366004611bed565b610737565b3480156102ae57600080fd5b506102556102bd366004611ba2565b610756565b3480156102ce57600080fd5b506101ff6109c0565b3480156102e357600080fd5b506102556109dd565b3480156102f857600080fd5b506101ff62278d0081565b34801561030f57600080fd5b506103186109ef565b6040519015158152602001610209565b34801561033457600080fd5b5061033d610a31565b6040516102099190611cef565b34801561035657600080fd5b50600554421015610318565b34801561036e57600080fd5b50610377610ad1565b6040516001600160a01b039091168152602001610209565b34801561039b57600080fd5b50610255610aff565b3480156103b057600080fd5b50610255610b61565b3480156103c557600080fd5b506103186103d4366004611ba2565b610bb3565b3480156103e557600080fd5b5061040a604051806040016040528060058152602001640352e302e360dc1b81525081565b6040516102099190611d80565b34801561042357600080fd5b5061042c610c0c565b6040516102099190611db3565b34801561044557600080fd5b5061040a610d2e565b34801561045a57600080fd5b50610318610e25565b34801561046f57600080fd5b506101ff62ed4e0081565b34801561048657600080fd5b50610255610e66565b34801561049b57600080fd5b506102556104aa366004611df6565b611043565b3480156104bb57600080fd5b506101ff61148a565b3480156104d057600080fd5b506101ff624f1a0081565b3480156104e757600080fd5b506101ff6114f7565b3480156104fc57600080fd5b5061025561050b366004611e38565b611517565b34801561051c57600080fd5b50600054600154600254600354600454600554600654610557966001600160a01b039081169616949392919060ff8082169161010090041688565b604051610209989796959493929190611e53565b6000546001600160a01b031633146105bd5760405162461bcd60e51b815260206004820152601060248201526f27b7363c903b30bab63a1037bbb732b960811b60448201526064015b60405180910390fd5b600654610100900460ff166105e45760405162461bcd60e51b81526004016105b490611eaa565b600060065460ff1660028111156105fd576105fd611cb7565b1461063d5760405162461bcd60e51b815260206004820152601060248201526f15985d5b1d081b9bdd081b1bd8dad95960821b60448201526064016105b4565b610645611552565b6005544210156106905760405162461bcd60e51b815260206004820152601660248201527515985d5b1d081b9bdd081e595d081d5b9b1bd8dad95960521b60448201526064016105b4565b600280546006805461ffff19169092179091556000546001546106c0916001600160a01b0391821691168361158a565b600054604080518381524260208201526001600160a01b03909216917ffa67cf348be4448bccfc6762cb1c5909d9bd75f8b36340872086f12dff6f36ff91015b60405180910390a2506107206001600080516020611f9e83398151915255565b565b600061073162278d0083611eea565b92915050565b61073f6115f5565b6107488261169a565b61075282826116a2565b5050565b6000546001600160a01b031633146107a35760405162461bcd60e51b815260206004820152601060248201526f27b7363c903b30bab63a1037bbb732b960811b60448201526064016105b4565b600654610100900460ff166107ca5760405162461bcd60e51b81526004016105b490611eaa565b600060065460ff1660028111156107e3576107e3611cb7565b146108235760405162461bcd60e51b815260206004820152601060248201526f15985d5b1d081b9bdd081b1bd8dad95960821b60448201526064016105b4565b61082b611552565b60055442106108755760405162461bcd60e51b815260206004820152601660248201527515985d5b1d08185b1c9958591e481d5b9b1bd8dad95960521b60448201526064016105b4565b600081116108c55760405162461bcd60e51b815260206004820152601e60248201527f50656e616c7479206d7573742062652067726561746572207468616e2030000060448201526064016105b4565b60025481106109165760405162461bcd60e51b815260206004820152601c60248201527f50656e616c74792063616e6e6f742065786365656420616d6f756e740000000060448201526064016105b4565b600254600090610927908390611f0c565b6006805461ffff191660019081179091556000549054919250610957916001600160a01b0390811691168361158a565b6000546040805184815260208101849052428183015290516001600160a01b03909216917fff5f5df32598354b364ecd3ce0b4e70e85b237ec68f8193b3faa422c8ddffd219181900360600190a2506109bd6001600080516020611f9e83398151915255565b50565b60006109ca61175f565b50600080516020611f7e83398151915290565b6109e56117a8565b61072060006117da565b600654600090610100900460ff168015610a1f5750600060065460ff166002811115610a1d57610a1d611cb7565b145b8015610a2c575060055442105b905090565b610a39611b3a565b6040805161010081018252600080546001600160a01b03908116835260015416602083015260028054938301939093526003546060830152600454608083015260055460a08301526006549192909160c084019160ff90911690811115610aa257610aa2611cb7565b6002811115610ab357610ab3611cb7565b815260069190910154610100900460ff161515602090910152919050565b7f9016d09d72d40fdae2fd8ceac6b6234c7706214fd39c1cd1e609a0528c199300546001600160a01b031690565b610b076117a8565b6006805461ff0019166101001790556000546040516001600160a01b03909116907f5e8526ee3954b37e3817ddd2a2af5028e0bd006511f190d1deeb43d15d0a18cd90610b579042815260200190565b60405180910390a2565b610b696117a8565b6006805461ff00191690556000546040514281526001600160a01b03909116907f57847ecb0caf57ab272aebf4d12c2e00b717d17e11280577d5302fd2f6a901ae90602001610b57565b600062278d00821480610bc85750624f1a0082145b80610bd557506276a70082145b80610be25750629e340082145b80610bef575062c5c10082145b80610bfc575062ed4e0082145b806107315750506301e133801490565b6040805160078082526101008201909252606091600091906020820160e08036833701905050905062278d0081600081518110610c4b57610c4b611f1f565b602002602001018181525050624f1a0081600181518110610c6e57610c6e611f1f565b6020026020010181815250506276a70081600281518110610c9157610c91611f1f565b602002602001018181525050629e340081600381518110610cb457610cb4611f1f565b60200260200101818152505062c5c10081600481518110610cd757610cd7611f1f565b60200260200101818152505062ed4e0081600581518110610cfa57610cfa611f1f565b6020026020010181815250506301e1338081600681518110610d1e57610d1e611f1f565b6020908102919091010152919050565b6060600060065460ff166002811115610d4957610d49611cb7565b03610d6f57506040805180820190915260068152651313d0d2d15160d21b602082015290565b600160065460ff166002811115610d8857610d88611cb7565b03610db7575060408051808201909152600f81526e57495448445241574e5f4541524c5960881b602082015290565b600260065460ff166002811115610dd057610dd0611cb7565b03610e03575060408051808201909152601381527215d2551211149055d397d0d3d3541311551151606a1b602082015290565b506040805180820190915260078152662aa725a727aba760c91b602082015290565b600654600090610100900460ff168015610e555750600060065460ff166002811115610e5357610e53611cb7565b145b8015610a2c57505060055442101590565b610e6e6117a8565b600654610100900460ff16610e955760405162461bcd60e51b81526004016105b490611eaa565b610e9d611552565b6001546040516370a0823160e01b81523060048201526000916001600160a01b0316906370a0823190602401602060405180830381865afa158015610ee6573d6000803e3d6000fd5b505050506040513d601f19601f82011682018060405250810190610f0a9190611f35565b905060008111610f555760405162461bcd60e51b81526020600482015260166024820152754e6f2062616c616e636520746f20776974686472617760501b60448201526064016105b4565b600060065460ff166002811115610f6e57610f6e611cb7565b148015610f835750600654610100900460ff16155b610fcf5760405162461bcd60e51b815260206004820152601c60248201527f5661756c74206e6f7420696e20656d657267656e63792073746174650000000060448201526064016105b4565b6006805461ff0019169055610ff8610fe5610ad1565b6001546001600160a01b0316908361158a565b611000610ad1565b6001600160a01b03167f56da9a5ae0bcf6e7c3fdd78a10550e7d0458de1c39bfb7f6e96a3e92dd344a688242604051610700929190918252602082015260400190565b600061104d61184b565b805490915060ff600160401b820416159067ffffffffffffffff166000811580156110755750825b905060008267ffffffffffffffff1660011480156110925750303b155b9050811580156110a0575080155b156110be5760405163f92ee8a960e01b815260040160405180910390fd5b845467ffffffffffffffff1916600117855583156110e857845460ff60401b1916600160401b1785555b6110f189611874565b6110f9611885565b611101611895565b6001600160a01b0389166111475760405162461bcd60e51b815260206004820152600d60248201526c24b73b30b634b21037bbb732b960991b60448201526064016105b4565b6001600160a01b03881661118d5760405162461bcd60e51b815260206004820152600d60248201526c24b73b30b634b2103a37b5b2b760991b60448201526064016105b4565b600087116111dd5760405162461bcd60e51b815260206004820152601d60248201527f416d6f756e74206d7573742062652067726561746572207468616e203000000060448201526064016105b4565b62278d0086101561123c5760405162461bcd60e51b8152602060048201526024808201527f4475726174696f6e20746f6f2073686f727420286d696e696d756d20333020646044820152636179732960e01b60648201526084016105b4565b6301e1338086111561129c5760405162461bcd60e51b8152602060048201526024808201527f4475726174696f6e20746f6f206c6f6e6720286d6178696d756d2033363520646044820152636179732960e01b60648201526084016105b4565b6040518061010001604052808a6001600160a01b03168152602001896001600160a01b0316815260200188815260200142815260200187815260200187426112e49190611f4e565b815260200160008152600160209182018190528251600080546001600160a01b039283166001600160a01b0319918216178255938501518354921691909316178155604083015160029081556060840151600355608084015160045560a084015160055560c0840151600680549193909260ff1990921691849081111561136d5761136d611cb7565b021790555060e09190910151600690910180549115156101000261ff00199092169190911790556005546040805189815260208101899052908101919091526001600160a01b0389811691908b16907fb9dc9ef27035dc036fc2a485f5e363db851c2568de0c4f98434b32eafd8ff06a9060600160405180910390a3600554600354604080518a815260208101939093528201526001600160a01b038a16907f5af4208eee53ce73e255da419c79a11f84872cacbc12e8df29b192100ed87ec59060600160405180910390a2831561147f57845460ff60401b19168555604051600181527fc7f505b2f371ae2175ee4913f4499e1f2633a7b5936321eed1cdaeb6115181d29060200160405180910390a15b505050505050505050565b6001546040516370a0823160e01b81523060048201526000916001600160a01b0316906370a0823190602401602060405180830381865afa1580156114d3573d6000803e3d6000fd5b505050506040513d601f19601f82011682018060405250810190610a2c9190611f35565b60055460009042106115095750600090565b600554610a2c904290611f0c565b61151f6117a8565b6001600160a01b03811661154957604051631e4fbdf760e01b8152600060048201526024016105b4565b6109bd816117da565b600080516020611f9e83398151915280546001190161158457604051633ee5aeb560e01b815260040160405180910390fd5b60029055565b604080516001600160a01b038416602482015260448082018490528251808303909101815260649091019091526020810180516001600160e01b031663a9059cbb60e01b1790526115dc90849061189d565b505050565b6001600080516020611f9e83398151915255565b306001600160a01b037f000000000000000000000000000000000000000000000000000000000000000016148061167c57507f00000000000000000000000000000000000000000000000000000000000000006001600160a01b0316611670600080516020611f7e833981519152546001600160a01b031690565b6001600160a01b031614155b156107205760405163703e46dd60e11b815260040160405180910390fd5b6109bd6117a8565b816001600160a01b03166352d1902d6040518163ffffffff1660e01b8152600401602060405180830381865afa9250505080156116fc575060408051601f3d908101601f191682019092526116f991810190611f35565b60015b61172457604051634c9c8ce360e01b81526001600160a01b03831660048201526024016105b4565b600080516020611f7e833981519152811461175557604051632a87526960e21b8152600481018290526024016105b4565b6115dc8383611914565b306001600160a01b037f000000000000000000000000000000000000000000000000000000000000000016146107205760405163703e46dd60e11b815260040160405180910390fd5b336117b1610ad1565b6001600160a01b0316146107205760405163118cdaa760e01b81523360048201526024016105b4565b7f9016d09d72d40fdae2fd8ceac6b6234c7706214fd39c1cd1e609a0528c19930080546001600160a01b031981166001600160a01b03848116918217845560405192169182907f8be0079c531659141344cd1fd0a4f28419497f9722a3daafe3b4186f6b6457e090600090a3505050565b6000807ff0c57e16840df040f15088dc2f81fe391c3923bec73e23a9662efc9c229c6a00610731565b61187c61196a565b6109bd8161198f565b61188d61196a565b610720611997565b61072061196a565b600080602060008451602086016000885af1806118c0576040513d6000823e3d81fd5b50506000513d915081156118d85780600114156118e5565b6001600160a01b0384163b155b1561190e57604051635274afe760e01b81526001600160a01b03851660048201526024016105b4565b50505050565b61191d8261199f565b6040516001600160a01b038316907fbc7cd75a20ee27fd9adebab32041f755214dbc6bffa90cc0225b39da2e5c2d3b90600090a2805115611962576115dc8282611a04565b610752611a7a565b611972611a99565b61072057604051631afcd79f60e31b815260040160405180910390fd5b61151f61196a565b6115e161196a565b806001600160a01b03163b6000036119d557604051634c9c8ce360e01b81526001600160a01b03821660048201526024016105b4565b600080516020611f7e83398151915280546001600160a01b0319166001600160a01b0392909216919091179055565b6060600080846001600160a01b031684604051611a219190611f61565b600060405180830381855af49150503d8060008114611a5c576040519150601f19603f3d011682016040523d82523d6000602084013e611a61565b606091505b5091509150611a71858383611ab3565b95945050505050565b34156107205760405163b398979f60e01b815260040160405180910390fd5b6000611aa361184b565b54600160401b900460ff16919050565b606082611ac857611ac382611b12565b611b0b565b8151158015611adf57506001600160a01b0384163b155b15611b0857604051639996b31560e01b81526001600160a01b03851660048201526024016105b4565b50805b9392505050565b805115611b2157805160208201fd5b60405163d6bda27560e01b815260040160405180910390fd5b60405180610100016040528060006001600160a01b0316815260200160006001600160a01b031681526020016000815260200160008152602001600081526020016000815260200160006002811115611b9557611b95611cb7565b8152600060209091015290565b600060208284031215611bb457600080fd5b5035919050565b80356001600160a01b0381168114611bd257600080fd5b919050565b634e487b7160e01b600052604160045260246000fd5b60008060408385031215611c0057600080fd5b611c0983611bbb565b9150602083013567ffffffffffffffff811115611c2557600080fd5b8301601f81018513611c3657600080fd5b803567ffffffffffffffff811115611c5057611c50611bd7565b604051601f8201601f19908116603f0116810167ffffffffffffffff81118282101715611c7f57611c7f611bd7565b604052818152828201602001871015611c9757600080fd5b816020840160208301376000602083830101528093505050509250929050565b634e487b7160e01b600052602160045260246000fd5b60038110611ceb57634e487b7160e01b600052602160045260246000fd5b9052565b81516001600160a01b0390811682526020808401519091169082015260408083015190820152606080830151908201526080808301519082015260a0828101519082015260c080830151610100830191611d4b90840182611ccd565b5060e0928301511515919092015290565b60005b83811015611d77578181015183820152602001611d5f565b50506000910152565b6020815260008251806020840152611d9f816040850160208701611d5c565b601f01601f19169190910160400192915050565b602080825282518282018190526000918401906040840190835b81811015611deb578351835260209384019390920191600101611dcd565b509095945050505050565b60008060008060808587031215611e0c57600080fd5b611e1585611bbb565b9350611e2360208601611bbb565b93969395505050506040820135916060013590565b600060208284031215611e4a57600080fd5b611b0b82611bbb565b6001600160a01b0389811682528816602082015260408101879052606081018690526080810185905260a081018490526101008101611e9560c0830185611ccd565b82151560e08301529998505050505050505050565b60208082526010908201526f5661756c74206e6f742061637469766560801b604082015260600190565b634e487b7160e01b600052601160045260246000fd5b600082611f0757634e487b7160e01b600052601260045260246000fd5b500490565b8181038181111561073157610731611ed4565b634e487b7160e01b600052603260045260246000fd5b600060208284031215611f4757600080fd5b5051919050565b8082018082111561073157610731611ed4565b60008251611f73818460208701611d5c565b919091019291505056fe360894a13ba1a3210667c828492db98dca3e2076cc3735a920a3ca505d382bbc9b779b17422d0df92223018b32b4d1fa46e071723d6817e2486d003becc55f00a2646970667358221220a7f9c3c67184a550bf3ea38eb1e01ebaf5c098693347452fd6990070acd85e5b64736f6c634300081c0033360894a13ba1a3210667c828492db98dca3e2076cc3735a920a3ca505d382bbc9b779b17422d0df92223018b32b4d1fa46e071723d6817e2486d003becc55f00a2646970667358221220abbe888a5827ba6ef4bd50ecf5ae7444ed9562aceb4c05357017fd49613b64ca64736f6c634300081c0033",
  "linkReferences": {},
  "deployedLinkReferences": {}
}